:02000002D0002C
:1040000000400D0014800D00000006000D000501A9
:0840100004017C050000000022
:04401800D0790D004E
:1040200009480A49884208B505D0094A824202D0A7
:10403000121A03F0D5FB0748074A0021121A03F0B1
:10404000DAFB014808BD00BF4CE10320787F0D007A
:10405000BCE10320C0E10320F4E7032070B501F0C8
:1040600081FB074C074BE41AA40800251E46A54215
:1040700004D056F8253098470135F8E770BD00BFE9
:10408000647F0D00207F0D0000F05EB808B500F0E1
:10409000E3F9BDE8084001F033BB00F027BE00F0B3
:1040A0002DBE00F02BBE0078B0FA80F040097047BA
:1040B00001230370704710687047000010B5094C69
:1040C00004F1300001F022F804F1200001F01EF8A4
:1040D00004F1100001F01AF82046BDE8104001F08C
:1040E00015B800BF34E2032038B5064D002404F1B2
:1040F00070002844103C01F009F814F1800FF6D14B
:1041000038BD00BF04E3032038B5064D002404F198
:1041100070002844103C00F0F9FF14F1800FF6D134
:1041200038BD00BF84E2032007B50823ADF8003096
:10413000044B019304226B4600F0B0FD03B05DF820
:1041400004FB00BFB7400D00F0B53D4F3D4D89B0B9
:104150000024385D002102F0F5F926463A49013481
:1041600004A801F01AF80A222146684601F08AF8EC
:10417000694604A801F0DDF8014605EB061001F0E0
:104180003CF8684600F0C2FF04A800F0BFFF042C12
:10419000DFD12E4A2E492F482F4E01F05BFB002421
:1041A00036F814500121284602F0CCF901340121DF
:1041B000284602F0D8F9042CF2D12848284F00F004
:1041C00007FB28492848FFF7AFFF28492848FFF791
:1041D000ABFF0024E6B2274904A800F0DEFF0A2264
:1041E0003146684601F03CF8694604A801F0A1F8A0
:1041F000250179190068FFF797FF684600F086FFF0
:1042000004A800F083FF1C4904A800F0C6FF0A229E
:104210003146684601F024F8694604A801F089F89F
:10422000164900682944FFF77FFF684600F06EFFDB
:10423000013404A800F06AFF082CCBD109B0F0BD0E
:104240006F7A0D0034E20320E4790D00F1790D005E
:10425000DD440D0029580D00747A0D00E0E10320C3
:1042600084E20320C8E10320FD790D0084E30320EC
:104270000D7A0D001C7A0D00217A0D0004E3032055
:10428000F0B5002485B0E1B2154800F00DFB062121
:10429000684657EC106B01F022F812482501694678
:1042A000284400F0C4FF684600F030FF00220E4BA7
:1042B0003046394602F002FE41EC100B06216846FA
:1042C00001F00DF809486946284400F0B0FF0134B8
:1042D000684600F01BFF082CD5D105B0F0BD00BF2B
:1042E000E0E1032084E2032000805D4004E303203A
:1042F00038B5046805467CB16368013B63605BB90F
:10430000236820469B689847A368013BA3601BB9BC
:1043100023682046DB689847284638BDF0B50C4630
:1043200097B0454D454E002837D0454906A800F0C6
:1043300034FF06A90EA800F06FFF0A22611C0AA82C
:1043400000F0A0FF0AA90EA800F0F3FF3D490746C0
:1043500012A800F022FF12A9384600F0EAFF014639
:1043600002A800F059FF12A800F0D0FE0AA800F041
:10437000CDFE0EA800F0CAFE06A800F0C7FE00F0B1
:1043800019FB2B68C01AC82801D9335D8BB10123F2
:1043900002A8335500F0BAFE4CE000F00BFB2B688E
:1043A000C01AC82802D9335D012B14D0002333551D
:1043B00040E0254B029A1968244B1B788DF8003099
:1043C00012A83C2301F056FB13A8FFF791FF00F061
:1043D000F1FA2860DBE71E4912A800F0DEFE0A228F
:1043E000611C0EA800F04EFF0EA912A800F0A1FF5C
:1043F000184900F0AAFF01460AA800F00DFF0EA818
:1044000000F084FE12A800F081FE0F4B0A9A196892
:104410000E4B1B788DF8003012A83C2301F02AFBCC
:1044200013A8FFF765FF00F0C5FA28600AA800F09E
:104430006DFEBBE717B0F0BDD8E10320C4E1032057
:10444000287A0D002F7A0D0074E2032030E2032059
:10445000477A0D00397A0D0070B51B4D1B4E8EB09A
:104460000024285D02F098F8012846F8240021462F
:1044700018BF00200134FFF751FF042CF1D114497B
:1044800004A801F0A3FD04A801F0F6F8062168468F
:1044900000F00BFF69460F4800F0C9FE684600F0C7
:1044A00035FE04A801F0CEF80621684600F0FDFEB6
:1044B0006946094800F0BBFE684600F027FEFFF79A
:1044C000DFFE0EB070BD00BF6F7A0D0094E30320D5
:1044D000ECE30320C8E1032084E3032070B58CB033
:1044E000054600F044FF0138032839D81E4B33F845
:1044F00010400021204602F036F800F05BFA064634
:1045000000F058FA801BB0F5FA7FF9D3204601215C
:1045100002F029F8154B16491C6804A800F03DFE6E
:10452000294604A800F005FF124900F00EFF0146DD
:1045300008A800F071FE104B089A1B788DF8003027
:1045400021463C2302A801F095FA03A8FFF7D0FE0C
:1045500008A800F0DBFD04A800F0D8FD012000E071
:1045600000200CB070BD00BF747A0D0074E203200F
:10457000407A0D00547A0D0030E2032038B5344BF8
:10458000344D01241C7000F0ADF901F09FFF0023B1
:104590001A4642F6440101F0A1FF01F097FF002303
:1045A0001A46214601F0A2FF00F004FA2A4B2B49DB
:1045B00018602B4800F0F1FD2A4A2B49284802F0E8
:1045C00041F82649294800F0E8FD264A26492748AF
:1045D00002F038F82649274800F0DFFD214A224939
:1045E000244802F02FF8002428192349103400F041
:1045F000D4FD802CF8D11B4A2049214D002002F027
:1046000021F8002428191C49103400F0C6FD802C24
:10461000F8D1144A1B49002002F014F816491A4830
:1046200000F0BBFD1449194800F0B7FD12491848C5
:1046300000F0B3FD1049174800F0AFFD094A1649D4
:10464000002001F0FFFF1548BDE8384000F0A4B895
:1046500030E2032084E20320D8E10320607A0D00D9
:10466000C8E10320C0E103200D510D0084E30320C5
:10467000627A0D0074E20320C37B0D0009410D0036
:1046800004E30320E9400D0034E2032044E2032068
:1046900054E2032064E20320BD400D00E0E103206A
:1046A0007FB5024608461379956833B13DB90C4988
:1046B00004B0BDE8704000F095BE0A4B00E00A4B24
:1046C000167B0A4C0A49527B0292012E08BF2146F2
:1046D00001910095074A002100F0EAFE04B070BD88
:1046E000997A0D00C37B0D00887A0D00917A0D0038
:1046F000957A0D00AF7A0D00054A02600022027122
:10470000044A82600122027302224273704700BF92
:10471000847A0D00809FD50010B5074C01210E2032
:1047200001F010FF204600F073FB2046034A1021E1
:10473000BDE8104000F0FABB18E7032040420F002C
:1047400070B5124E05460C460146304600F07EFB21
:1047500000210E2001F007FFE10001F0F8013046D2
:1047600000F006FC000204B22C820021304600F06A
:10477000FFFB2043288201210E2001F0F4FE304689
:1047800000F04BFBB5F9100070BD00BF18E7032027
:1047900000F0A8B80000000010B50446FFF7ACFF19
:1047A00007A3D3E90023C4E9062307A3D3E9002321
:1047B000C4E910234FF4B963A364204610BD00BFC1
:1047C000000000000004A04066666666660646407B
:1047D000FFF7A2BF000000002DE9F04704460025C6
:1047E0004FFA81FAA66CB54230D251462046FFF707
:1047F000A7FF606102F0FCFAD4E9066732463B4647
:104800008046894602F0A6F90022254B02F056FBAD
:1048100032463B4602F0A0F902460B46C4E90623A5
:104820004046494602F096F902460B46C4E9082381
:1048300002F044FB02460B46C4E90A23D4E90C010A
:1048400002F08AF90135C4E90C01CBE712A3D3E9E0
:104850000023D4E9100102F031FB8046304689463E
:1048600002F0B6FA02460B46D4E90C0102F050FC05
:1048700041EC100B02F038F8404653EC102B49463F
:1048800002F01CFB00220023C4E90E01C4E90C2342
:1048900041EC100BBDE8F0876666666666664A3FC7
:1048A0000000503F00000000072901D8FFF794BF27
:1048B0009FED010B704700BF000000000000F0BF3B
:1048C00000F010B808B5024B1B689B68019308BD47
:1048D0006802030008B5024B1B68DB68019308BD42
:1048E0006802030008B5024B1B681B68019308BDF2
:1048F0002C02030008B5024B1B689B68019308BD9E
:104900002C02030008B5024B1B68DB68019308BD4D
:104910002C02030008B5024B1B681B69019308BDFC
:104920002C02030008B5024B1B685B69019308BDAC
:104930002C02030008B5024B1B681B68019308BDDD
:104940003002030008B5024B1B681B69019308BDC8
:104950003002030008B5024B1B685B69019308BD78
:104960003002030008B5024B1B68DB69019308BDE8
:104970003002030008B5024B1B681B6A019308BD97
:104980003002030008B5024B1B685B6A019308BD47
:104990003002030008B5024B1B68DB6B019308BDB6
:1049A0003002030008B5024B1B685B68019308BD29
:1049B0001802030008B5024B1B685B69019308BD30
:1049C0001802030008B5024B1B689B68019308BDE1
:1049D0004802030008B5024B1B681B69019308BD20
:1049E0004802030008B5024B1B685B69019308BDD0
:1049F0004802030008B5024B1B681B6B019308BDFE
:104A00004802030008B5024B1B689B6B019308BD6D
:104A10004802030008B5024B1B681B6C019308BDDC
:104A20004802030008B5024B1B685B6C019308BD8C
:104A30004802030008B5024B1B685B69019308BD7F
:104A40006402030008B5024B1B681B68019308BD94
:104A50003C02030008B5024B1B68DB68019308BDEC
:104A60003C02030008B5024B1B681B69019308BD9B
:104A70003C02030008B5024B1B685B69019308BD4B
:104A80003C02030008B5024B1B689B69019308BDFB
:104A90003C02030008B5024B1B68DB69019308BDAB
:104AA0003C02030008B5024B1B681B6A019308BD5A
:104AB0003C02030008B5024B1B689B6A019308BDCA
:104AC0003C02030008B5024B1B681B6A019308BD3A
:104AD0002802030008B5024B1B685B6A019308BDFE
:104AE0002802030008B5024B1B689B6A019308BDAE
:104AF0002802030008B5024B1B68DB6A019308BD5E
:104B00002802030008B5024B1B681B6B019308BD0C
:104B10002802030008B5024B1B685B6B019308BDBC
:104B20002802030008B5024B1B681B6C019308BDEB
:104B30002802030008B5024B1B685B6C019308BD9B
:104B40007402030008B5024B1B681B68019308BD83
:104B50004C02030008B5024B1B681B69019308BD9A
:104B60004C02030008B5024B1B685B69019308BD4A
:104B70004C02030008B5024B1B689B69019308BDFA
:104B80004C02030008B5024B1B68DB69019308BDAA
:104B90004C02030008B5024B1B681B6A019308BD59
:104BA0004C02030008B5024B1B685B68019308BD0B
:104BB0002002030008B5024B1B68DB6C019308BDA3
:104BC0002002030008B5024B1B685B6D019308BD12
:104BD0002002030008B5034B1B68D3F8883001930B
:104BE00008BD00002002030008B5034B1B68D3F882
:104BF0009430019308BD00002002030008B5024B69
:104C00001B685B68019308BD4002030008B5024BB6
:104C10001B689B68019308BD4002030008B5024B66
:104C20001B68DB68019308BD4002030008B5024B16
:104C30001B681B69019308BD4002030008B5024BC5
:104C40001B685B69019308BD4002030008B5024B75
:104C50001B689B69019308BD4002030008B5024B25
:104C60001B68DB69019308BD4002030008B5024BD5
:104C70001B681B6A019308BD4002030008B5024B84
:104C80001B681B6B019308BD4002030008B5024B73
:104C90001B685B6B019308BD4002030008B5024B23
:104CA0001B681B68019308BD4402030008B5024B52
:104CB0001B685B68019308BD4402030008B5024B02
:104CC0001B685B69019308BD4402030008B5024BF1
:104CD0001B681B6A019308BD4402030008B5024B20
:104CE0001B68DB6B019308BD4402030008B5024B4F
:104CF0001B681B68019308BD1C02030008B5024B2A
:104D00001B685B68019308BD1C02030008B5024BD9
:104D10001B689B68019308BD1C02030008B5024B89
:104D20001B685B6A019308BD1C02030008B5024BB7
:104D30001B68DB6A019308BD1C02030008B5024B27
:104D40001B681B6B019308BD1C02030008B5024BD6
:104D50001B68DB6B019308BD1C0203000022114697
:104D60004068FFF783BF002211464068FFF78EBFFF
:104D700000224068FFF782BF002281F001014068F5
:104D8000FFF76CBF00231A4619464068FFF75EBF65
:104D900000231A4619464068FFF750BF002211460B
:104DA0004068FFF743BF002211464068FFF72EBF5F
:104DB000002202214068FFF731BF00231A464068F5
:104DC000FFF71CBF024B03225A60024A1A60704769
:104DD000A4E30320D87A0D00704710B510210446D3
:104DE00001F035FC204610BD70B5084B0360044649
:104DF00000250E4640F80C5FFFF7FCFD304626719B
:104E0000FFF7B0FDA560204670BD00BF0C7B0D0014
:104E10004FF6FF710079FFF78DBDC068FFF7FABD4F
:104E2000400830B51860002418688842E5B206D9F9
:104E30000134082C02D040081860F5E70725024B22
:104E40005B5D137030BD00BF147B0D002DE9F04396
:104E500080468FB0C0680F46FFF7D4FD98F8044035
:104E60001422002109A802F0C6FC0B2320460022D0
:104E700009A9ADF82430FFF785FD9DF82D404CB110
:104E80009DF82C502DB90C9E9DF834909DF835401E
:104E900003E00024A146264601253B790DB1002BF5
:104EA00040D19D420BD1BA68B24208D18DF8209012
:104EB0008DF82140BDF82010BA89914232D023BB31
:104EC0008DF80F300DF10F0204ABB9680A98FFF7A7
:104ED000A7FF3B7905B113BBAB4209D000213B7B57
:104EE00001917C7B9DF80F2098F80400009413E05A
:104EF000BB68B342F2D38DF820908DF82140BDF805
:104F00002020BB899A42E9D109E0002398F80400E7
:104F1000019300931A460121FFF73CFD02E0049B38
:104F2000B342DBD100200FB0BDE8F08370B588B08C
:104F3000067902FB01F504461422002103A802F0C1
:104F40005AFC0B2303A930460022ADF80C30FFF7C2
:104F500019FD02AB0DF1070229460498FFF760FF27
:104F600020799DF80710FFF7EDFC029808B070BD9E
:104F700008B50079FFF7EEFCC0B208BD0079FFF775
:104F8000F9BC0000044B00204FF6FF7218705880E7
:104F90009A80FFF707BE00BFACE3032010B50446BC
:104FA00002F07DFC013823182046984206D2027890
:104FB000197800F8011B03F80129F6E710BD70B558
:104FC0000C46911E222920D82546294610B9234493
:104FD00030220EE0B0FBF2F602FB1600C1B205F87B
:104FE000011B092894BF3031573105F8011C3046A8
:104FF000EBE7994202D201F8012BFAE700232046A1
:105000000B70FFF7CBFF204670BD002070BD38B598
:10501000031E0C4615460BDAB3F1004F4FF02D027C
:1050200014BF5842184601230A702A46194400E06A
:105030000123FFF7C4FF204638BD08B50123FFF761
:10504000BEFF08BD2DE9F14F59EC108B07460E4607
:105050000022002310EE100A494602F0A1F928B1FF
:1050600009F1004399462D233370013600230124B2
:105070000A22D9B28F4202D954430133F9E72046BC
:1050800001F0B6FE42464B4601F018FF82468B46C1
:1050900002F0FCF98046894601F0DAFE02460B4632
:1050A0005046594601F056FD0022174B02F08CF98C
:1050B00018B118F1010849F10009E51722462B46FD
:1050C0004046494602F0CAF901230A223146FFF759
:1050D00076FFAFB1304602F0E2FB2E2333540130AD
:1050E000064422462B464046494602F0B7F93B4665
:1050F000104631460A2201B0BDE8F04FFFF75FBF0E
:1051000001B0BDE8F08F00BF0000E03F10B50446DD
:105110000068FFF7F3FD204610BD10B50446006897
:1051200008B1FFF7EBFD00232360A360636010BDAF
:1051300038B504460D4600680131FFF7E7FD10B1B0
:1051400084E82100012038BD10B50368044613B17E
:1051500043688B4207D22046FFF7EAFF20B1A368DD
:105160000BB922681370012010BD70B50E461146B0
:1051700004461546FFF7E8FF18B92046FFF7CDFFB4
:1051800009E02A463146A560206802F029FB226822
:10519000A3680021D154204670BD38B500230446D1
:1051A00003604360836003730D4639B1084602F023
:1051B00076FB294602462046FFF7D7FF204638BD3A
:1051C00038B5054600680C4660B16A688B689A423B
:1051D00006D3096802F040FBA368AB6000230AE035
:1051E000FFF78CFD23682B6063686B60A368AB607E
:1051F000002323606360A36038BD884210B50B466E
:10520000044607D0096819B19A68FFF7AEFF01E0BC
:10521000FFF783FF204610BD10B50023044603604E
:10522000436083600373FFF7E8FF204610BD8842A8
:1052300010B5044601D0FFF7C3FF204610BD38B5B6
:1052400005460C4641B1084602F029FB21460246BC
:105250002846FFF78AFF01E0FFF75FFF284638BDC9
:105260001FB50446002323606360A36023730846D0
:1052700001A9FFF7E2FE01A92046FFF7E0FF204663
:1052800004B010BD10B5044600238AB023606360EB
:10529000A3602373084601A9FFF7B9FE01A92046C0
:1052A000FFF7CDFF20460AB010BD30B500238BB00C
:1052B0000360436083600373044610EE100ACDB2AE
:1052C00001F0A8FD41EC100B01A92846FFF7BAFE3A
:1052D00001A92046FFF7B3FF20460BB030BD10B543
:1052E00000238AB004460360436083600373C8B23E
:1052F00001A9FFF7A7FE01A92046FFF7A0FF20465E
:105300000AB010BD70B504460E4609B9002070BD44
:105310006AB18368D5182946FFF716FF0028F5D033
:105320002068A3683146184402F096FAA56001206F
:1053300070BD10B58A6809680446FFF7E3FF10B92D
:105340002046FFF7EAFE204610BD38B504460D465C
:1053500041B1084602F0A3FA294602462046FFF76B
:10536000D1FF10B92046FFF7D8FE204638BD0068AF
:1053700008B102F023BA70470B68036013B15A6892
:1053800001325A6070470000024800230360FFF7B3
:1053900049BB00BFB4E30320F8B506460D468F189D
:1053A0000024BD420CD0336815F8011B9B683046C1
:1053B0009847002801DB0444F3E7002C08BF0446AB
:1053C0002046F8BD70B505460C46084649B102F0C6
:1053D00066FA2B68024621462846DB68BDE8704025
:1053E000184770BD08B5FFF7EDFF08BD03689B685F
:1053F000184738B50D210546FFF7F8FF0A21044686
:105400002846FFF7F3FF204438BD30B58BB00B467C
:1054100000218DF82410012A98BF0A220DF12304DF
:10542000B3FBF2F505FB123303F0FF03092B94BF26
:1054300030333733DBB2214604F801392B46002DD7
:10544000EED1FFF7BFFF0BB030BD10B42AB903682F
:105450005DF8044B9B68C9B21847D2B25DF8044BA3
:10546000FFF7D3BFFFF7F1BF2DE9F04107460E4626
:1054700015462AB90368C9B29B68BDE8F0411847D0
:105480000A2A02D1002901DA04E0D2B2BDE8F041D3
:10549000FFF7BBBF2D21FFF7A9FF2A460446714243
:1054A0003846FFF7B2FF2044BDE8F081FFF7DCBFCC
:1054B0000CB42DE9F04387B000AF07F1380405467E
:1054C00054F8049B3C600E4623464A461421381D7E
:1054D000FFF724FC132805D8391D2846FFF772FF73
:1054E000044613E000F1080323F00703E846ADEBA0
:1054F000030D411C23464A4668463C60FFF70EFCFC
:1055000069462846FFF75EFF0446C5461EB1284699
:10551000FFF76FFF044420461C37BD46BDE8F0434B
:1055200002B07047014B024A1A607047B8E303208B
:105530008F7B0D00024B1A68024B1A60704700BF48
:105540004CE10320BCE3032010B58368044613B18B
:10555000032201469847204610BD10B50446FFF7C8
:10556000F3FF204610BD13B50B46044603C88DE873
:10557000030093E8030084E803009DE8030083E848
:10558000030002B010BD00000348044A0449002390
:10559000836001F057B800BFC0E30320C0E10320DF
:1055A0005B550D007047007D70470000037D1BB107
:1055B0008369B3F1004F02D19FED050A704707EEF2
:1055C000903A9FED047AF8EEE77A87EE870A704703
:1055D000000000000000C842037D1BB1036AB3F164
:1055E000004F02D19FED050A704707EE903A9FEDFC
:1055F000047AF8EEE77A87EE870A70470000000029
:105600000000C84270B50D4606460A228168284649
:10561000FFF74CFF2C2104462846FFF7E7FE0A223D
:105620000444F1682846FFF741FF204470BDA0F113
:105630000400FFF7E7BF10B52821044601F007F882
:10564000204610BD037D7BB1436A002B0CDB07EEC7
:10565000903ADFED076A9FED070AB8EEE77AC7EEEA
:10566000267A27EE800A7047BFEE000A704700BF17
:1056700000FF7F470000C842037D7BB1C369002B58
:105680000CDB07EE903ADFED076A9FED070AB8EEF4
:10569000E77AC7EE267A27EE800A7047BFEE000A47
:1056A000704700BF00FF7F470000C84230B50D467D
:1056B00000F110040FCD0FC495E8030084E8030047
:1056C000012030BD08B50C4B33B100F025FC036858
:1056D0001B699847002809DC084B63B100F024FDE2
:1056E00003681B699847002803DC08BDAFF30080FE
:1056F000F2E7AFF3008008BD0000000000000000EA
:1057000008B5FFF7DFFFFFF755F9014B186008BD3B
:1057100038E7032007B5002300931A466FF077019E
:10572000FFF762FA03B05DF804FB000007B5438899
:105730000A2B08D0502B09D1094B1B683BB103B091
:105740005DF804EB1847FFF7E5FF06E00023009340
:105750001A466FF07701FFF747FA03B05DF804FBD4
:10576000D0E3032010B5FFF71DF9044602F04CF812
:10577000074B13B12046AFF3008000210448FFF728
:10578000ADFA00210348BDE81040FFF723BA00BF7F
:10579000000000002D570D0070470020704710B525
:1057A0001021044600F053FF204610BD08B508B193
:1057B000FFF7F5FF08BD0022026010B54FF69C729E
:1057C0008280B1F9044084808A8002680C68046099
:1057D0000A6010BD10B504460068FFF78FFA204636
:1057E00010BD38B5C468F4B12378022B03D104F19D
:1057F0000C00FFF7EFFF656835B12846FFF7A4FE00
:105800001021284600F023FFA56835B12846FFF790
:105810009BFE1021284600F01AFF20461421BDE807
:10582000384000F014BF38BD10B588B00446684653
:10583000FFF7B3FC694604A8FFF7EEFC04A8A047F5
:10584000044604A8FFF762FC6846FFF75FFC2046A9
:1058500008B010BDF0B5102485B007460E461546B9
:1058600000212246684601F0C6FF00226946104624
:10587000ADF80040029703960195FFF717FA05B0BF
:10588000F0BD13B5044691E8050000234B600B60A2
:105890002060626001A801930093FEF729FD204675
:1058A00002B010BDF7B50C4602AD54F8043B45F804
:1058B000083D06460F4601A82146FFF75DFD294633
:1058C0003046FFF7DEFF01A8FEF712FD2046FEF787
:1058D0000FFD3846082100F0BAFE304603B0F0BD97
:1058E00038B500230446036010200D46FEF7D5FBB3
:1058F00028B1012343608360024B0360C5602060D0
:10590000204638BD647C0D00826810B50AB900F0ED
:10591000A0FEC368BDE81040184708B5006800F154
:105920001001FFF7F1FF08BD826810B50AB900F059
:1059300090FEC368BDE81040184708B5006800F144
:105940001001FFF7F1FF08BD38B5002383608B68B5
:1059500004460D462BB102229847EB68E360AB6822
:10596000A360204638BD0000F0B589B004686846E1
:10597000FFF721FF00238DF808304FF00202D4E832
:105980004F3F002B03D1C4E8412F0029F7D102D0AB
:105990008DF8083063E014F10C0503D06946284601
:1059A000FFF709FFBFF35F8F01236370002004F14D
:1059B0000803BFF35F8F53E8006F43E80002002A3B
:1059C000F9D1BFF35F8F002E49D0FFF7F3F820B174
:1059D00029463046FFF798FF3AE0314602A8FFF724
:1059E000B3FFE068B4F9105008B101F03DFF069034
:1059F0001020ADF81C50FEF750FB0546E8B100271B
:105A000087601820FEF749FB044688B1014687608D
:105A100002A8FFF7A8FD049BA268A360059B04925F
:105A200006A9E268E36004F110000592FFF7C3FEE7
:105A30000D4BEB600D4B2C60AB6006A8FFF7CAFE68
:105A400002A8FFF781FD002229460948FFF7BAF8AE
:105A50003046FFF779FD1021304600F0F8FD68462A
:105A6000FFF7B8FE09B0F0BD1B590D00915B0D00AA
:105A700075610D002DE9F04F8BB006460F4690463C
:105A800099469DF850A0FFF719F907AD834630BB42
:105A90004FF62E73059005A92846ADF81830FFF78C
:105AA0008AFE1420FEF7F9FA044658B10223037067
:105AB00001234370C0F804B0C0F808B029460C3088
:105AC000FFF779FE3046214640F8044BFFF708FF08
:105AD0002846FFF77FFE05A8FFF77CFE52E0002472
:105AE0000C2314206C60AC600793FEF7D6FA0146D5
:105AF00018B1047044704460846004A80391FFF7F7
:105B0000EFFE224B08930820FEF7C7FA044628B19F
:105B1000039B40F8043B04A9FFF72EFC00955FFAB5
:105B20008AF34A46414638460994FFF7CFF820B930
:105B3000039B5B7803F0FF0283B1039B059304A9E9
:105B400006A8FFF719FC05A93046FFF79AFE06A83C
:105B5000FEF7CEFB04A8FEF7CBFB13E04FF69C73D9
:105B600005A903A80592ADF81830FFF7FDFE05A8BA
:105B7000FFF730FE05A80999FFF794FE06A8FEF787
:105B8000B7FBDAE730460BB0BDE8F08F015D0D00E2
:105B9000022AF8B5044606D0032A17D0012A22D1DA
:105BA0000B6803601FE018200E68FEF776FA0546C2
:105BB00050B13146FFF7C8FE3069B6F9147008B12C
:105BC00001F052FE2861AF8225600CE0046854B1F8
:105BD00004F11000FFF7FEFD2046FFF7B5FC182189
:105BE000204600F034FD0020F8BD38B50023836066
:105BF0008B6804460D462BB102229847EB68E360A0
:105C0000AB68A360204638BD022A70B5044606D0B2
:105C1000032A11D0012A18D10B68036015E0142063
:105C20000E68FEF73AFA054620B13146FFF7DDFF70
:105C3000337C2B74256008E0046834B12046FFF7FC
:105C400083FC1421204600F002FD002070BD0000FE
:105C5000F0B5002387B00C46BFF35F8F50E8006FAC
:105C600040E80032002AF9D1BFF35F8F002E3FD009
:105C70001846FEF79FFF074620B121463046FFF742
:105C800053FE2EE0314601A8FFF7AFFF23788DF8D1
:105C900014301020FEF701FA0546D0B187601420B9
:105CA000FEF7FBF9044678B18760014601A8FFF7CB
:105CB0005AFC039BA268A360049B0392E268E36022
:105CC0009DF81430049223740A4BEB600A4B2C604D
:105CD000AB6001A8FFF738FC002229460748FEF711
:105CE00071FF3046FFF730FC1021304600F0AFFC6A
:105CF00007B0F0BD3B590D00095C0D0075610D004A
:105D000030B585B004460D4668461146FFF7CAFD1A
:105D10007CB124B228460DB101F0A6FD029002A983
:105D20006846ADF80C40FFF71FFE02A8FFF752FDD2
:105D30001DE000988DF808404FF00102D0E84F3F79
:105D4000A34203D1C0E8412F0029F7D102D08DF83A
:105D500008300CE010F10C014FF0010318BF037381
:105D6000BFF35F8F043000F8033CFFF771FF01A819
:105D7000FEF7BEFA05B030BD704710B518210446D5
:105D800000F065FC204610BDF0B5037D062B8DB0FC
:105D90000E4600F104074FF0000402D000F10805A0
:105DA00018E00CAD394605F8304D2F232A460A205D
:105DB000FEF740FE284601F072FD33680246DB68BC
:105DC0002946304698470FE024B12E213046FFF790
:105DD0000DFB044415F8011D0A223046FFF742FB73
:105DE000BD420444F0D120460DB0F0BD10B5054BC6
:105DF0000446112240F8043B002101F0FCFC20463F
:105E000010BD00BF807C0D000346074A10B543F863
:105E1000042B01F1100251F8044B43F8044B91425A
:105E2000F9D10A781A7010BD807C0D0010B59DF86C
:105E3000084044EA032343EA024242EA01610423A0
:105E40004160037510BD37B50D788B784A78C978F5
:105E500000912946FFF7EAFF03B030BD4174704757
:105E6000704708B50021007CFEF784FE30EA200070
:105E700028BF4FF0FF3008BD08B50121007CFEF7B8
:105E800079FE30EA200028BF4FF0FF3008BD08B58A
:105E9000007CFEF767FE20EAE07008BD08B5007CD4
:105EA000FEF758FE20EAE07008BD007CFEF772BEE7
:105EB00010B51421044600F0CAFB204610BD38B5C9
:105EC0000446007C0D46FEF74DFE002801DC607C98
:105ED00028B12946207CFEF755FE20EAE07038BD47
:105EE00010B50446002363604FF47A73A360054B3A
:105EF000236001230846217463741146FEF722FED5
:105F0000204610BD947C0D0010B5142204460021DB
:105F100001F071FC204610BD30B50E4D87B001A8D0
:105F2000FFF7F2FF296811F0010410D12846FEF7AF
:105F3000BAF860B101AA21460748FFF7D1FF284609
:105F4000FEF7B6F8054A0649034800F07BFB024815
:105F500007B030BDD4E30320D8E30320C0E1032021
:105F6000615E0D00002211464068FEF75FBE002210
:105F700011464068FEF77ABE002211464068FEF7DF
:105F800085BE00224068FEF779BE002281F0010143
:105F90004068FEF763BE00231A4619464068FEF7C4
:105FA00055BE00231A4619464068FEF747BE002238
:105FB00011464068FEF72ABE002202214068FEF723
:105FC0002DBE00231A464068FEF718BEF0B51B4BE5
:105FD000036000250F462833182689B0436085608A
:105FE000C560324629460446103001F004FC2A46BA
:105FF00029467868FEF71AFE08B9A0601BE029461A
:10600000324602A80095019501F0F5FB02A9684609
:10601000ADF80860FEF78EFD10B10123A3600AE021
:10602000009B019AA360E2600BB90223A36002A95E
:106030002046FFF73BFB204609B0F0BD307C0D0049
:1060400038B5084C28252A460021204601F0D3FB0C
:106050004FF0FF336360044B258004225A60034AEB
:106060001A6038BDF4E30320ECE30320C47C0D0088
:1060700070474174704708B5007CFEF71BFD20EAAD
:10608000E07008BD08B5007CFEF7ECFC20EAE0708B
:1060900008BD08B5007CFEF7F5FC30EA200028BFFB
:1060A0004FF0FF3008BD08B5007CFEF7E3FC30EA96
:1060B000200028BF4FF0FF3008BD007CFEF7EABC8F
:1060C00010B51421044600F0C2FA204610BD70B588
:1060D000457C04460E4625B9007CFEF7EBFC002803
:1060E00005DD3146207CBDE87040FEF7B3BC284694
:1060F00070BD000010B504460846114600226260DB
:106100004FF47A72A260054A226001222074627400
:106110001A46FEF797FC204610BD00BFF87C0D0024
:10612000007CFEF7BFBC000038B50C4D296811F0AB
:10613000010411D12846FDF7B6FF68B1084A094BA2
:1061400009482146FFF7D6FF2846FDF7B1FF074A69
:106150000749054800F076FA034838BDB4E4032047
:10616000B8E4032030E403201CE40320C0E1032052
:1061700071600D0010B5836804460BB900F069FA30
:10618000C3689847A3681BB103222146204698475D
:1061900020461021BDE8104000F059BA7047F8B50C
:1061A000064615460C468F18BC4206D0336814F8D4
:1061B000011B9B6830469847F6E72846F8BD002249
:1061C000007CFEF77FBC0021007CFEF783BC002131
:1061D000007CFEF787BC0021007CFEF78BBC002111
:1061E000007CFEF78FBC10B51421044600F02FFA96
:1061F000204610BD10B504464FF47A730846A360DC
:106200000021044B207461602360FEF78BFC204664
:1062100010BD00BF287D0D000021007CFEF77ABC78
:10622000002211464068FEF721BD00221146406859
:10623000FEF72CBD00224068FEF720BD002281F051
:1062400001014068FEF70ABD00231A46012140689B
:10625000FEF7FCBC00231A4619464068FEF7EEBC68
:10626000002211464068FEF7E1BC0022114640685A
:10627000FEF7CCBC002202214068FEF7CFBC002311
:106280001A464068FEF7BABC38B5054688B10468BE
:106290004CB1A3681BB10322214620469847102128
:1062A000204600F0D4F928461421BDE8384000F01B
:1062B000CEB938BD10B103685B681847704710B598
:1062C00003680446BBB15868FEF77CFB78B92368C5
:1062D0005A7C12B95868FEF77DFB23685868FEF7B0
:1062E00081FB20680023236028B1FFF7CDFF2068E1
:1062F00008B1FFF7C9FF204610BD000038B50C4BB0
:1063000003600446D0F8CC0108B1FDF7CAFED4F80A
:10631000C45135B12846FFF7D2FF0421284600F0CA
:1063200096F9A06808B1FFF7C5FF204638BD00BF49
:10633000507D0D0038B50E4C0E4B23600025022316
:1063400004F5E4706360A560C4F8C451C4F8C85192
:10635000FEF768FB084BC4F8CC5184F8D051236099
:106360002046064A0649BDE8384000F06BB900BF38
:106370003CE50320847D0D00507D0D00C0E103202D
:10638000FD620D0000231A464068FEF737BC00226C
:1063900002214068FEF742BC002211464068FEF729
:1063A00035BC002211464068FEF740BC00231A4667
:1063B00019464068FEF742BC00231A461946406859
:1063C000FEF744BC002281F001014068FEF746BCA4
:1063D00000224068FEF752BC002211464068FEF7DA
:1063E00055BC002211464068FEF740BC2DE9F04341
:1063F000002495B016460D460746FFF7F7FC2146E8
:1064000020220CA8009401F0F6F940230C932146B9
:106410006B460CAA3046FEF75DFA0446002844D1CC
:10642000024601216868FEF701FC022180462246EF
:106430006868FEF7FBFB009E81462146002E34D0A3
:10644000002932D17368022B02D00A2B09D02AE02E
:10645000B8F1000F27D0716938460431FFF7F3FC1B
:1064600020E0B9F1000F1ED07469112201A801F0DB
:10647000C2F906238DF8143001AD04F10803183475
:10648000186859682A4603C20833A3421546F7D153
:1064900001A906A807ADFFF7B7FC0FCD3C1D0FC43F
:1064A0002B6823700121F669C8E70098FEF70AFA05
:1064B000384615B0BDE8F083024B034A1A6000224B
:1064C0005A60704710E70320847D0D0008B5024B29
:1064D0001B681B68019308BD5C02030008B5024BF2
:1064E0001B685B68019308BD5C02030008B5024BA2
:1064F0001B689B68019308BD5C02030010B504464D
:106500000F48FEF73BFD28B1A4F10B03022B01D885
:10651000002010BD00F076F8FFF77EFE08B1012CD8
:10652000F6D9FFF701FEFFF7FBFD18B1A4F109034F
:10653000012BEDD9232C8CBF0020012010BD00BF02
:1065400018E70320232838B504460D460AD8FF294A
:1065500008D0FFF7D3FF28B129462046BDE83840D0
:10656000FEF7C8B938BD38B504460D46FEF7CAF97E
:10657000FF2810D0062804D84D2323FA00F0C307C3
:1065800009D42046FFF7BAFF28B129462046BDE8C6
:106590003840FEF7BFB938BD10B50446FEF7B2F972
:1065A0000438C0B2012808D92046FFF7A7FF20B160
:1065B0002046BDE81040FEF7B5B9002010BD000030
:1065C00070B50C4C0C4E0D4D00212046FEF70CFC16
:1065D00020460B4C3246294600F034F80121204673
:1065E000FEF702FC324629462046BDE8704000F026
:1065F00029B800BF18E70320C0E10320D94D0D00E2
:1066000028E7032038B50B4D296811F001040FD19C
:106610002846FDF748FD58B121460748FFF7EAFD37
:106620002846FDF745FD054A0549034800F00AF8EC
:10663000014838BD3CE7032040E70320C0E10320C8
:106640009D610D000B460146184601F0BBB8FDF7F1
:1066500026BD08B5FEF76AFB184B1A68D1075CBF68
:1066600001221A60164B1A68D2075CBF01221A6019
:10667000144B1A68D0075CBF01221A60124B1A68CB
:10668000D1075CBF01221A60104B1A68D2075CBFA9
:1066900001221A600E4B1A68D0075CBF01221A60F3
:1066A0000C4B1A68D1075CBF01221A600A4B1A68AA
:1066B000D2075CBF01221A60704700BF70E7032059
:1066C0006CE7032068E7032064E7032060E703200A
:1066D0005CE7032058E7032054E70320244B1A68A3
:1066E000D0075CBF01221A60224B1A68D1075CBF39
:1066F00001221A60204B1A68D2075CBF01221A607F
:106700001E4B1A68D0075CBF01221A601C4B1A6826
:10671000D1075CBF01221A601A4B1A68D2075CBF0E
:1067200001221A60184B1A68D0075CBF01221A6058
:10673000164B1A68D1075CBF01221A60144B1A6805
:10674000D2075CBF01221A60124B1A68D0075CBFE7
:1067500001221A60104B1A68D1075CBF01221A602F
:106760000E4B1A68D2075CBF01221A60704700BF47
:10677000A0E703209CE7032098E7032094E7032089
:1067800090E703208CE7032088E7032084E70320B9
:1067900080E703207CE7032078E7032074E70320E9
:1067A000244B1A68D0075CBF01221A60224B1A687A
:1067B000D1075CBF01221A60204B1A68D2075CBF68
:1067C00001221A601E4B1A68D0075CBF01221A60B2
:1067D0001C4B1A68D1075CBF01221A601A4B1A6859
:1067E000D2075CBF01221A60184B1A68D0075CBF41
:1067F00001221A60164B1A68D1075CBF01221A6089
:10680000144B1A68D2075CBF01221A60124B1A6837
:10681000D0075CBF01221A60104B1A68D1075CBF19
:1068200001221A600E4B1A68D2075CBF01221A605F
:10683000704700BFD0E70320CCE70320C8E7032060
:10684000C4E70320C0E70320BCE70320B8E7032028
:10685000B4E70320B0E70320ACE70320A8E7032058
:10686000A4E70320184B1A68D1075CBF01221A6005
:10687000164B1A68D2075CBF01221A60144B1A68C3
:10688000D0075CBF01221A60124B1A68D1075CBFA7
:1068900001221A60104B1A68D2075CBF01221A60ED
:1068A0000E4B1A68D0075CBF01221A600C4B1A68A5
:1068B000D1075CBF01221A600A4B1A68D2075CBF7D
:1068C00001221A60704700BFF0E70320ECE70320C5
:1068D000E8E70320E4E70320E0E70320DCE7032008
:1068E000D8E70320D4E703202DE9F0432DED028BF8
:1068F0008BB055EC104B00F057F8294BB0EE408AA6
:10690000F0EE608A93F90060731C12D022462B4689
:106910002046294600F06CFD074650B94FF00008AC
:106920004FF000092046294642464B4600F038FD0C
:1069300040B9B0EE480AF0EE680A0BB0BDEC028B2D
:10694000BDE8F083174B08970122CDE90445CDE956
:1069500002458DE80C00B6B142464B4640464946DA
:1069600000F0D6FB022ECDE906010ED1FEF7EEF9BE
:1069700021230360089B73B99DED060B0BB0BDECA2
:10698000028BBDE8F083CDE90689684600F0DCF8AB
:106990000028EFD1EAE7FEF7D9F9089B0360EBE79F
:1069A00050E10320B07D0D002DE9F041654955EC23
:1069B000104B0E462940B14200F09780002D2B4627
:1069C00010EE102A74DD2F157FD0A7F2FF37C3F326
:1069D0001303F90743F4801365D403EBD271002647
:1069E0000B447F105200B64616204FF400110EEBF8
:1069F00001049C424FEAD2754FEA420203DC1B1BA2
:106A000004EB010E0E44013805EB43034FEA51013C
:106A1000EDD1844620244FF0004109E020D003EB63
:106A2000D275013C4FEA51012B444FEA420220D07B
:106A30009E4501EB0C05F1DA002D05EB010C09DB9D
:106A4000F0469542CEEB030300D9013B521B0844AC
:106A5000C646E4E7BCF1000FF2DB0EF10108F0E7F7
:106A600095421ED8002D05EB010C50DB9846002303
:106A7000ECE7134304D0421C4DD000F0010318444E
:106A800040087110F30701F17F5101F5001148BF73
:106A900040F0004001EB0753024643EC102BBDE8E9
:106AA000F0817346BBE75B0003EBD273520094E7BF
:106AB00025F00041214328D0ADBB2F46D30A153F16
:106AC0005205002BFAD0DD0228D4002100E0014657
:106AD0005B00DC0201F10100F9D5C0F1200422FACB
:106AE00004F423437F1A82406FE710EE102A2B46EE
:106AF00010EE100A294600F0E1F922462B4600F07C
:106B00002BF841EC100BBDE8F081BDE8F081BCF141
:106B1000000FA2DAAAE701362046B2E720244FF0A0
:106B2000FF310020DBE710EE102A2B4620462946D5
:106B300000F010F802460B4600F0EAFA41EC100BA8
:106B4000BDE8F0810000F07F0020704781F0004137
:106B500002E000BF83F0004330B54FEA41044FEA42
:106B6000430594EA050F08BF90EA020F1FBF54EADD
:106B7000000C55EA020C7FEA645C7FEA655C00F079
:106B8000E2804FEA5454D4EB5555B8BF6D420CDD4A
:106B90002C4480EA020281EA030382EA000083EACD
:106BA000010180EA020281EA0303362D88BF30BD6D
:106BB00011F0004F4FEA01314FF4801C4CEA1131C3
:106BC00002D0404261EB410113F0004F4FEA033322
:106BD0004CEA133302D0524263EB430394EA050FAD
:106BE00000F0A780A4F10104D5F1200E0DDB02FA1C
:106BF0000EFC22FA05F2801841F1000103FA0EF2B0
:106C0000801843FA05F359410EE0A5F120050EF175
:106C1000200E012A03FA0EFC28BF4CF0020C43FAA6
:106C200005F3C01851EBE37101F0004507D54FF0B3
:106C3000000EDCF1000C7EEB00006EEB0101B1F503
:106C4000801F1BD3B1F5001F0CD349085FEA300049
:106C50004FEA3C0C04F101044FEA445212F5800F54
:106C600080F09A80BCF1004F08BF5FEA500C50F1F1
:106C7000000041EB045141EA050130BD5FEA4C0CD4
:106C8000404141EB010111F4801FA4F10104E9D15D
:106C900091F0000F04BF01460020B1FA81F308BF54
:106CA0002033A3F10B03B3F120020CDA0C3208DD20
:106CB00002F1140CC2F10C0201FA0CF021FA02F1FB
:106CC0000CE002F11402D8BFC2F1200C01FA02F16B
:106CD00020FA0CFCDCBF41EA0C019040E41AA2BF90
:106CE00001EB0451294330BD6FEA04041F3C1CDA58
:106CF0000C340EDC04F11404C4F1200220FA04F078
:106D000001FA02F340EA030021FA04F345EA030121
:106D100030BDC4F10C04C4F1200220FA02F001FAE3
:106D200004F340EA0300294630BD21FA04F0294665
:106D300030BD94F0000F83F4801306BF81F48011FE
:106D40000134013D4EE77FEA645C18BF7FEA655C71
:106D500029D094EA050F08BF90EA020F05D054EA43
:106D6000000C04BF1946104630BD91EA030F1EBF48
:106D70000021002030BD5FEA545C05D1400049414C
:106D800028BF41F0004130BD14F580043CBF01F53F
:106D9000801130BD01F0004545F0FE4141F4700125
:106DA0004FF0000030BD7FEA645C1ABF1946104600
:106DB0007FEA655C1CBF0B46024650EA013406BF01
:106DC00052EA033591EA030F41F4002130BD00BFC0
:106DD00090F0000F04BF0021704730B54FF480647D
:106DE00004F132044FF000054FF0000150E700BFFE
:106DF00090F0000F04BF0021704730B54FF480645D
:106E000004F1320410F0004548BF40424FF0000149
:106E10003EE700BF42004FEAE2014FEA31014FEA8C
:106E200002701FBF12F07F4393F07F4F81F06051DB
:106E3000704792F0000F14BF93F07F4F704730B54A
:106E40004FF4607401F0004521F0004120E700BFDD
:106E500050EA010208BF704730B54FF000050AE064
:106E600050EA010208BF704730B511F0004502D565
:106E7000404261EB41014FF4806404F132045FEA67
:106E8000915C3FF4DCAE4FF003025FEADC0C18BF0C
:106E900003325FEADC0C18BF033202EBDC02C2F102
:106EA000200300FA03FC20FA02F001FA03FE40EA94
:106EB0000E0021FA02F11444C1E600BF70B54FF094
:106EC000FF0C4CF4E06C1CEA11541DBF1CEA135576
:106ED00094EA0C0F95EA0C0F00F0DEF82C4481EADE
:106EE000030621EA4C5123EA4C5350EA013518BFFE
:106EF00052EA033541F4801143F4801338D0A0FBEB
:106F000002CE4FF00005E1FB02E506F00042E0FB97
:106F100003E54FF00006E1FB03569CF0000F18BF9D
:106F20004EF0010EA4F1FF04B6F5007F64F5407445
:106F300004D25FEA4E0E6D4146EB060642EAC621D8
:106F400041EA55514FEAC52040EA5E504FEACE2E45
:106F5000B4F1FD0C88BFBCF5E06F1ED8BEF1004F48
:106F600008BF5FEA500E50F1000041EB045170BDC4
:106F700006F0004646EA010140EA020081EA030108
:106F8000B4EB5C04C2BFD4EB0C0541EA045170BD04
:106F900041F480114FF0000E013C00F3AB8014F17E
:106FA000360FDEBF002001F0004170BDC4F10004C7
:106FB000203C35DA0C341BDC04F11404C4F1200548
:106FC00000FA05F320FA04F001FA05F240EA0200A3
:106FD00001F0004221F0004110EBD37021FA04F6D9
:106FE00042EB06015EEA430E08BF20EAD37070BD93
:106FF000C4F10C04C4F1200500FA04F320FA05F0F2
:1070000001FA04F240EA020001F0004110EBD370F3
:1070100041F100015EEA430E08BF20EAD37070BD63
:10702000C4F1200500FA05F24EEA020E20FA04F33C
:1070300001FA05F243EA020321FA04F001F00041EB
:1070400021FA04F220EA020000EBD3705EEA430E5C
:1070500008BF20EAD37070BD94F0000F0FD101F08B
:107060000046400041EB010111F4801F08BF013CC4
:10707000F7D041EA060195F0000F18BF704703F002
:107080000046520043EB030313F4801F08BF013D89
:10709000F7D043EA0603704794EA0C0F0CEA135545
:1070A00018BF95EA0C0F0CD050EA410618BF52EAFF
:1070B0004306D1D181EA030101F000414FF0000005
:1070C00070BD50EA410606BF1046194652EA430613
:1070D00019D094EA0C0F02D150EA013613D195EA87
:1070E0000C0F05D152EA03361CBF104619460AD1CF
:1070F00081EA030101F0004141F0FE4141F47001D9
:107100004FF0000070BD41F0FE4141F4780170BDC8
:1071100070B54FF0FF0C4CF4E06C1CEA11541DBF2D
:107120001CEA135594EA0C0F95EA0C0F00F0A7F82F
:10713000A4EB050481EA030E52EA03354FEA01315C
:1071400000F088804FEA03334FF0805545EA13136F
:1071500043EA12634FEA022245EA111545EA106537
:107160004FEA00260EF000419D4208BF964244F1CE
:10717000FD0404F5407402D25B084FEA3202B61AED
:1071800065EB03055B084FEA32024FF480104FF4C1
:10719000002CB6EB020E75EB030E22BFB61A754635
:1071A00040EA0C005B084FEA3202B6EB020E75EBC8
:1071B000030E22BFB61A754640EA5C005B084FEA30
:1071C0003202B6EB020E75EB030E22BFB61A7546FD
:1071D00040EA9C005B084FEA3202B6EB020E75EB08
:1071E000030E22BFB61A754640EADC0055EA060EC9
:1071F00018D04FEA051545EA16754FEA06164FEA0C
:10720000C30343EA52734FEAC2025FEA1C1CC0D1B7
:1072100011F4801F0BD141EA00014FF000004FF044
:10722000004CB6E711F4801F04BF01430020B4F105
:10723000FD0C88BFBCF5E06F3FF6AFAEB5EB030CBD
:1072400004BFB6EB020C5FEA500C50F1000041EBBA
:10725000045170BD0EF0004E4EEA113114EB5C0487
:10726000C2BFD4EB0C0541EA045170BD41F480115A
:107270004FF0000E013C90E645EA060E8DE60CEA62
:10728000135594EA0C0F08BF95EA0C0F3FF43BAF7F
:1072900094EA0C0F0AD150EA01347FF434AF95EA36
:1072A0000C0F7FF425AF104619462CE795EA0C0F1A
:1072B00006D152EA03353FF4FDAE1046194622E7E7
:1072C00050EA410618BF52EA43067FF4C5AE50EAC1
:1072D00041047FF40DAF52EA43057FF4EBAE12E7B1
:1072E0004FF0FF3C06E000BF4FF0010C02E000BF92
:1072F0004FF0010C4DF804CD4FEA410C7FEA6C5C75
:107300004FEA430C18BF7FEA6C5C1BD001B050EA17
:10731000410C0CBF52EA430C91EA030F02BF90EA02
:10732000020F0020704710F1000F91EA030F58BFC1
:10733000994208BF90422CBFD8176FEAE37040F023
:10734000010070474FEA410C7FEA6C5C02D150EAC1
:10735000013C07D14FEA430C7FEA6C5CD6D152EA7C
:10736000033CD3D05DF8040B704700BF8446104641
:1073700062468C461946634600E000BF01B5FFF740
:10738000B7FF002848BF10F1000F01BD4DF808ED10
:10739000FFF7F4FF0CBF012000205DF808FB00BFE1
:1073A0004DF808EDFFF7EAFF34BF012000205DF83B
:1073B00008FB00BF4DF808EDFFF7E0FF94BF012088
:1073C00000205DF808FB00BF4DF808EDFFF7CEFF89
:1073D00094BF012000205DF808FB00BF4DF808EDC8
:1073E000FFF7C4FF34BF012000205DF808FB00BF99
:1073F0004FEA410C7FEA6C5C02D150EA013C0AD1B1
:107400004FEA430C7FEA6C5C02D152EA033C02D1A2
:107410004FF0000070474FF0010070474A0011D252
:1074200012F5001211D20DD56FF47873B3EB6252DE
:107430000ED44FEAC12343F0004343EA505323FAEA
:1074400002F070474FF00000704750EA013002D15F
:107450004FF0FF3070474FF00000704753B94AB902
:10746000002908BF00281CBF4FF0FF314FF0FF304C
:1074700000F0A2B9ADF1080C6DE904CE00F02AF8D5
:10748000DDF804E0DDE9022304B07047D0B5002246
:107490000E4B06460F46FFF711FDFFF7BFFF0446F0
:1074A000FFF796FC00220A4BFFF708FD02460B4649
:1074B00030463946FFF74EFBFFF7B0FF2346002268
:1074C00042EA000210461946D0BD00BF0000F03D60
:1074D0000000F0412DE9F0478C460E460446089D19
:1074E000002B50D18A4217466CD9B2FA82FEBEF107
:1074F000000F0BD0CEF1200420FA04F401FA0EF6AE
:1075000044EA060C02FA0EF700FA0EF44FEA1749A5
:10751000220CBCFBF9F01FFA87F809FB10C642EAFF
:10752000064600FB08F3B34209D9F61900F1FF3211
:1075300080F02281B34240F21F8102383E44F61AA5
:10754000A2B2B6FBF9F309FB136642EA064403FB59
:1075500008F8A04509D9E41903F1FF3280F00A8147
:10756000A04540F20781023B3C44C8EB040443EAD7
:1075700000400021002D62D024FA0EF400232C607C
:107580006B60BDE8F0878B4207D9002D55D00021F4
:1075900085E841000846BDE8F087B3FA83F1002989
:1075A00040F09080B34202D3824200F2F880841A05
:1075B00066EB03060120B446002D40D085E810108C
:1075C000BDE8F08712B90127B7FBF2F7B7FA87FEDB
:1075D000BEF1000F35D1F31B4FEA17481FFA87FCA5
:1075E0000121B3FBF8F0220C08FB103642EA0646F4
:1075F0000CFB00F3B34207D9F61900F1FF3202D2B7
:10760000B34200F2CE801046F61AA2B2B6FBF8F3EF
:1076100008FB136642EA06440CFB03FCA44507D9A9
:10762000E41903F1FF3202D2A44500F2B5801346FB
:10763000CCEB040443EA00409CE729462846BDE819
:10764000F087CEF1200106FA0EF307FA0EF720FAC2
:1076500001F94FEA1748CE4049EA0309B6FBF8FAA8
:107660004FEA194408FB1A661FFA87FC44EA0643EE
:107670000AFB0CF29A4200FA0EF40AD9DB190AF15D
:10768000FF3180F087809A4240F28480AAF1020A9A
:107690003B449B1A1FFA89F9B3FBF8F108FB11333D
:1076A00049EA034301FB0CF69E4207D9DB1901F1BD
:1076B000FF326BD29E4269D902393B449B1B41EA9F
:1076C0000A418EE7C1F1200E22FA0EF48B402343CB
:1076D00020FA0EF706FA01F44FEA134C26FA0EF6DA
:1076E0003C43B6FBFCF9270C0CFB19661FFA83F828
:1076F00047EA064609FB08F7B74202FA01F200FA28
:1077000001FA08D9F61809F1FF3041D2B7423FD942
:10771000A9F102091E44F61BA0B2B6FBFCF40CFB57
:10772000146640EA064704FB08F8B84507D9FF1875
:1077300004F1FF3028D2B84526D9023C1F4444EA60
:107740000940C8EB0707A0FB02894F4544464E4657
:1077500014D329D065B3BAEB040367EB060707FA25
:107760000EFECB40CF404EEA030385E8880000219F
:10777000BDE8F0871346F8E61046E0E6B8EB0204F1
:1077800069EB03060138E5E70446D8E7114695E7BB
:107790008146C0E78A467CE7023B3C4448E708460E
:1077A0000AE702383E442FE7C245E7D33E46D1E719
:1077B0002946BDE8F08700BF704700BF0A220021BC
:1077C00000F0FCB810B5054C13462CB10A46014632
:1077D0000220AFF3008010BD204610BD0000000065
:1077E00010B5431E0A44914204D011F8014B03F82E
:1077F000014FF8E710BD02440346934202D003F85C
:10780000011BFAE77047000038B5124B1C68A36BE8
:107810000546D3B91820FDF769FA43F20E33A06389
:1078200003804AF6CD33438041F2342383804EF205
:107830006D63C3804DF6EC630381052343810B2305
:10784000838101220023C0E90423A36B00221D6170
:107850005A6138BDB8E10320034611F8012B03F843
:10786000012B002AF9D17047024B0146186800F03D
:1078700003B800BFB8E1032070B5064608460C46C1
:1078800000F00DF8451C29463046FDF757FA06462C
:1078900018B12A462146FFF7A3FF304670BD0346C4
:1078A00013F8012B002AFBD1181A01387047000089
:1078B0002DE9F04780464048D0F800900F463D46FD
:1078C00015F8014B09EB0400407800F0080000F0C7
:1078D000FF0608B12F46F2E72D2C03D1BD1C7C78A2
:1078E000012603E02B2C04BF7C78BD1C13B1102BA8
:1078F0000AD15BE0302C57D1287800F0DF005828FF
:107900004DD16C7810230235002E14BF4FF0004C7F
:107910006FF0004C0027BCFBF3FA384603FB1ACC8F
:1079200009EB040E9EF801E01EF0040F01D0303C7C
:107930000BE01EF0030E1BD0BEF1010F0CBF4FF089
:10794000370E4FF0570ECEEB0404A34210DDB7F113
:10795000FF3F0AD0504506D801D1644503DC03FB44
:107960000040012701E04FF0FF3715F8014BD7E742
:107970007B1C0CD1002E4FF0220314BF4FF00040AF
:107980006FF00040C8F800302AB9BDE8F08706B1B2
:10799000404272B107B1691E1160BDE8F087302422
:1079A000002BB1D10823AFE70A23ADE7302CA3D0D9
:1079B000AAE7BDE8F08700BF54E1032013460A465A
:1079C000014602480068FFF773BF00BFB8E103201B
:1079D00021400D005D400D0089400D008D400D00DF
:1079E0000000000044727965725F416C61726D5FE6
:1079F0000052657365745F447279657200536967FC
:107A00006E616C5F537472656E677468005369676A
:107A10006E616C5F5175616C69747900416D705F66
:107A200000506F7765725F004472796572200020A4
:107A3000696E20416C61726D00205265736574003F
:107A400052656D6F746520447279657220416C6176
:107A5000726D20002052657365742053656E74004A
:107A6000300044727965725F416C61726D7300041D
:107A700005060800030002000100000000000000ED
:107A800000000000A1460D0064656661756C7420FD
:107A9000004D5342004C5342003C535049536574CF
:107AA00074696E67732064656661756C743E003C32
:107AB00053504953657474696E6773202573256C40
:107AC00075202573204D4F444525643E000000007D
:107AD0000000000000000000BB4D0D00B14D0D0086
:107AE000A74D0D009D4D0D00914D0D00854D0D00D4
:107AF000794D0D00714D0D00674D0D005D4D0D0070
:107B0000ED630D000000000000000000D94D0D00E5
:107B1000DB4D0D00000810182028303862617564B4
:107B20000053657269616C0053657269616C310064
:107B30007479706500706172616D00636D640069D5
:107B40006400686E64007374726D0066696C740022
:107B50006C766C0061646448616E646C657200727E
:107B6000656D6F766548616E646C657200656E75F3
:107B70006D48616E646C657273004A534F4E537466
:107B80007265616D4C6F6748616E646C657200610F
:107B9000707000253031307520005D2000256400B4
:107BA0002C200028293A2000205B00636F646520A8
:107BB0003D200025690064657461696C73203D2077
:107BC000000D0A0066006C6E00666E00636F6465EF
:107BD0000064657461696C006E6F6E65007472613B
:107BE000636500696E666F007761726E0065727220
:107BF0006F720070616E696300616C6C005A0025E1
:107C00002B3033643A253032750025592D256D2DE2
:107C100025645425483A254D3A2553257A00617349
:107C20006374696D65000000000000000000000042
:107C3000A5550D0037560D00A7550D0079560D00BE
:107C4000AD550D0045560D00D9550D0005560D00DA
:107C5000FCFFFFFF000000002F560D000000000099
:107C60000000000099570D009F570D00E3570D00CD
:107C7000AD570D009B570D000000000000000000F4
:107C8000895D0D00795D0D007B5D0D000000000039
:107C900000000000615E0D00B15E0D00BF5E0D00D2
:107CA00099530D009D5E0D00635E0D00795E0D0021
:107CB000AB5E0D008F5E0D005D5E0D0000000000EC
:107CC00000000000C35F0D00B95F0D00AF5F0D0045
:107CD000655F0D00A35F0D00975F0D008B5F0D00CA
:107CE000835F0D00795F0D006F5F0D00ED630D0088
:107CF000000000000000000071600D00C1600D0078
:107D0000CF600D0099530D0085600D00A7600D0038
:107D100093600D00BB600D0073600D0077600D0077
:107D200000000000000000009D610D00E7610D00F3
:107D3000BF610D009F610D00C7610D00CF610D0097
:107D4000D7610D00DF610D000000000000000000A1
:107D50007F620D0075620D006B620D0061620D00A7
:107D600055620D0049620D003D620D0035620D0047
:107D70002B620D0021620D00ED630D00000000007C
:107D80000000000085630D008F630D0099630D00F6
:107D9000A3630D00AD630D00B9630D00C5630D0055
:107DA000D1630D00D9630D00E3630D00ED630D0099
:107DB0007371727400000000002020202020202019
:107DC000202028282828282020202020202020208B
:107DD000202020202020202020881010101010109B
:107DE00010101010101010101004040404040404E7
:107DF0000404041010101010101041414141414181
:107E00000101010101010101010101010101010162
:107E10000101010110101010101042424242424272
:107E20000202020202020202020202020202020232
:107E300002020202101010102000000000000000DA
:107E40000000000000000000000000000000000032
:107E50000000000000000000000000000000000022
:107E60000000000000000000000000000000000012
:107E70000000000000000000000000000000000002
:107E800000000000000000000000000000000000F2
:107E900000000000000000000000000000000000E2
:107EA00000000000000000000000000000000000D2
:107EB00000000000000000000000000000000000C2
:107EC00000000000000000000000000000000000B2
:107ED00000000000000000000000000000000000A2
:107EE0000000000000000000000000000000000092
:107EF0000000000000000000000000000000000082
:107F00000000000000000000000000000000000071
:107F1000000000000000000000000000430000001E
:107F20007D450D0091470D00C1480D00C54D0D0068
:107F3000854F0D0089530D0025550D0035550D0059
:107F400089550D0041600D0035630D00B9640D00C9
:107F5000C1650D0059660D00DD660D00A1670D00BD
:107F600065680D0000000000000000000000000037
:087F700064F5FF7F0100000031
:107F78001E7C0D0001000000B87D0D00000000000F
:107F8800BC7E0D00DC7E0D00FC7E0D0000000000B4
:107F98000000000000000000000000001C7F0D0031
:107FA80000000000000000000000000000000000C9
:107FB80000000000000000000000000000000000B9
:107FC80000000000000000000000000000000000A9
:107FD80000000000000000000000000058E103203D
:107FE800FFFFFFFF4428010000000102030405060B
:107FF8000708090A0B0C0D0E0F1011121314151691
:0C8008001718191A1B1C1D1E1F20280031
:048014007856341254
:04000003D0004020C9
:00000001FF
