:02000002D0002C
:1040000000400D0040810D00000006000D0005017C
:08401000040179050000000025
:04401800047B0D0018
:1040200009480A49884208B505D0094A824202D0A7
:10403000121A03F06FFC0748074A0021121A03F016
:1040400074FC014808BD00BF50E2032098800D00B9
:10405000D0E20320D0E20320F0E7032070B501F0A6
:10406000F1FB074C074BE41AA40800251E46A542A5
:1040700004D056F8253098470135F8E770BD00BFE9
:104080008C800D0040800D0000F03CBA08B500F0B7
:1040900021F9BDE8084001F0A3BB00F011BE00F01B
:1040A00017BE00F015BE0078B0FA80F040097047E6
:1040B00001230370704710687047000010B5094C69
:1040C00004F1300000F0E2FF04F1200000F0DEFF18
:1040D00004F1100000F0DAFF2046BDE8104000F0C7
:1040E000D5BF00BF0CE303202DE9F84FDFF8D0A0C7
:1040F000834600245C45324D34D000213148324D96
:1041000000F0AAFB314B186002F0E4FED5E900672D
:1041100032463B468046894602F08EFD00222C4BFB
:1041200002F03EFF32463B4602F088FD02460B4657
:10413000C5E900234046494602F07EFD254D024672
:104140000B46C5E9002302F02BFF0B46224902462D
:10415000C1E90023DAE9000102F070FD0134CAE987
:104160000001C7E71D4914A3D3E90023D1E90001E9
:1041700002F016FF064620460F4602F09BFE02465E
:104180000B46D5E9000103F035F841EC100B02F0C5
:104190001DFC304653EC102B394602F001FF104B4A
:1041A0000022C3E900010023C5E9002341EC100B04
:1041B000BDE8F88FAFF300806666666666664A3FC4
:1041C00088E30320F8E2032058E20320D4E203202E
:1041D0000000503FD8E20320F0E2032050E2032029
:1041E00060E3032038B5046805467CB16368013B91
:1041F00063605BB9236820469B689847A368013BCE
:10420000A3601BB923682046DB689847284638BD61
:10421000F0B58DB007460C4604A82749274D284E17
:1042200000F07BFF4FB100F09FFB2B68C01AC8283D
:1042300001D9335D8BB1012309E000F095FB2B68B8
:10424000C01AC82802D9335D012B19D0002304A855
:10425000335500F01BFF0DB0F0BD2301194AD158B2
:10426000194B049A1B788DF8003008A8174B01F001
:1042700071FC09A8FFF7B6FF00F076FB2860DAE7CB
:104280002301104A1249D75808A800F046FF0E4BE8
:10429000089A1B788DF8003039460C4B02A801F0C3
:1042A00059FC03A8FFF79EFF08A800F0EFFE00F0FE
:1042B0005BFB2860CAE700BF187B0D0004E3032006
:1042C0005CE303200CE3032008E3032080F40300F5
:1042D000217B0D002DE9F047584DDFF88CA192B0FD
:1042E0000024A9461AF8040002F0C5F9B0F5FA7FD7
:1042F00045F824002146CCBF01200020FFF788FFAD
:1043000001F07EFE0A2221460646684600F068FF5C
:10431000694604A800F040FF494904A800F0C3FF23
:104320004FEA84080A22074659F8081008A800F046
:1043300057FF08A9384600F0AAFF0168304600F090
:10434000FFFF08A800F0A2FE04A800F09FFE684648
:1043500000F09CFE013401F053FE3A4900F0F0FFFA
:10436000042CBFD101F04CFE00F0F1FF364908A843
:1043700001F0A0FE08A801F0EFF9062104A800F062
:1043800042FF04A9314800F012FF04A800F07EFEAD
:1043900008A801F0C7F9062104A800F034FF04A919
:1043A0002B4800F004FF04A800F070FE01F028FE86
:1043B000284900F0C5FF4FF4B960FFF795FE0621CC
:1043C00004A855EC104B00F038FF04A9224800F077
:1043D000EEFE04A800F05AFE0022204B204629469B
:1043E00002F0DEFD41EC100B062104A800F025FFD1
:1043F00004A91B4800F0DBFE04A800F047FE01F012
:10440000FFFD0022174B06462946204602F0C8FD54
:1044100041EC100B0221304601F0AAF801F0F0FD4A
:10442000084900F08DFF01F0EBFD022145EC104B37
:1044300001F0A1F812B0BDE8F08700BF90E30320BF
:104440002D7B0D00C37C0D00E8E30320E0E2032098
:1044500078E30320367B0D0068E303200000594019
:104460004CE3032000805B40847B0D0030B589B0B5
:1044700000F02BFF441E032C27D8154B33F81450A3
:104480000021284602F0CBF84FF4FA7001F0CAF888
:104490000121284602F0C3F824010E4B0E491C5995
:1044A00004A800F03AFE0D4B049A1B788DF80030FA
:1044B00021460B4B02A801F04DFB03A8FFF792FE2B
:1044C00004A800F0E3FD012000E0002009B030BDA9
:1044D000887B0D000CE30320217B0D0008E3032003
:1044E00080F4030007B50823ADF80030044B0193B6
:1044F00004226B4600F0BCFB03B05DF804FB00BF78
:10450000B7400D00F0B58BB001F07AFD4FF41651B5
:1045100001F06AFD284F294D0024385D032102F087
:104520006DF826462649013406A800F0F6FD0A2259
:10453000214602A800F054FE02A906A800F0A7FE3A
:10454000014605EB061000F018FE02A800F09EFDE3
:1045500006A800F09BFD042CDFD11A4A1A491B481B
:104560001B4E01F0E7F9002436F8145001212846CB
:1045700002F044F801340121284602F050F8042CDE
:10458000F2D10E230C2200930D210B23114800F0D1
:10459000C9F811491148FFF7A5FF11491148FFF764
:1045A000A1FF11491148FFF79DFF11491148FFF77D
:1045B00099FF0BB0F0BD00BF847B0D000CE303201E
:1045C0003F7B0D004C7B0D006D440D0009590D0023
:1045D000887B0D00F8E20320E0E20320587B0D0009
:1045E00078E30320687B0D004CE30320777B0D000C
:1045F00068E303207D7B0D00F8B5284B284E294F3A
:10460000294C2A4D01221A7000F046F900F0ACF94D
:10461000274B31461860384600F07FFD3846254F5D
:104620002246294602F080F83146384600F075FDF2
:104630003846214F2246294602F076F83146384660
:1046400000F06BFD38461D4F2246294602F06CF8FB
:104650003146384600F061FD194E2946194D224673
:10466000384602F061F83146284600F056FD3146E2
:1046700005F1100000F051FD314605F1200000F079
:104680004CFD314605F1300000F047FD22460E4951
:104690000020BDE8F84002F047B800BF08E303205F
:1046A000827B0D00E0E20320D0E203208D500D005C
:1046B00004E3032078E303204CE3032068E30320B2
:1046C000E57C0D000CE30320BD400D007FB50246E4
:1046D00008461379956833B13DB90C4904B0BDE87B
:1046E000704000F02DBE0A4B00E00A4B167B0A4CCE
:1046F0000A49527B0292012E08BF21460191009582
:10470000074A002100F042FF04B070BDAD7B0D00F0
:10471000E57C0D009C7B0D00A57B0D00A97B0D00A9
:10472000C37B0D0038B504460025A3709DF81030FA
:10473000627023700846E1702571012101F05EFF6F
:104740006078012101F05AFF2946A07801F056FF58
:104750002078012101F052FF2946E07801F05FFF47
:104760002946607801F05BFF2078012101F057FFB6
:10477000012038BD2DE9F043C90001F0380161F096
:104780007F0182F00102047941EA821585B0064674
:10479000EDB2A4B32E4B00934FF000082D4B806870
:1047A00002934FF0010969468DF804808DF80C9052
:1047B0008DF80D8000F030FB4146307801F02FFF7E
:1047C0002946B06800F098FB41460546B06800F005
:1047D00093FB41460446B06800F08EFB494607460D
:1047E000307801F01CFFB06800F0FCFA6D02C7F3EE
:1047F000C71040EA440005F40075284325E021462F
:10480000007801F00CFF2D020F2745FA07F101F0A7
:104810000101707801F003FF0121F07801F0FFFE43
:10482000F078002101F0FBFE6400B078A4B201F042
:104830000FFF08B144F0010417F1FF37E5D23078DB
:10484000012101F0ECFEC4F3090005B0BDE8F083DE
:10485000987B0D0070991400072902D80022FFF7F9
:1048600089BF4FF0FF30704700F016B800F014B861
:1048700000F012B800F010B808B5024B1B689B6836
:10488000019308BD6802030008B5024B1B68DB6892
:10489000019308BD6802030008B5024B1B681B6842
:1048A000019308BD2C02030008B5024B1B685B682E
:1048B000019308BD2C02030008B5024B1B689B68DE
:1048C000019308BD2C02030008B5024B1B68DB688E
:1048D000019308BD2C02030008B5024B1B681B693D
:1048E000019308BD2C02030008B5024B1B685B69ED
:1048F000019308BD2C02030008B5024B1B681B6B1B
:10490000019308BD2C02030008B5024B1B685B69CC
:10491000019308BD3002030008B5024B1B68DB6938
:10492000019308BD3002030008B5024B1B681B6AE7
:10493000019308BD3002030008B5024B1B685B6A97
:10494000019308BD3002030008B5024B1B68DB6B06
:10495000019308BD3002030008B5024B1B685B6879
:10496000019308BD1802030008B5024B1B685B6980
:10497000019308BD1802030008B5024B1B689B6831
:10498000019308BD4802030008B5024B1B681B6970
:10499000019308BD4802030008B5024B1B685B6920
:1049A000019308BD4802030008B5024B1B681B6B4E
:1049B000019308BD4802030008B5024B1B689B6BBE
:1049C000019308BD4802030008B5024B1B681B6C2D
:1049D000019308BD4802030008B5024B1B685B6CDD
:1049E000019308BD4802030008B5024B1B685B69D0
:1049F000019308BD6402030008B5024B1B681B68E5
:104A0000019308BD3C02030008B5024B1B68DB683C
:104A1000019308BD3C02030008B5024B1B681B69EB
:104A2000019308BD3C02030008B5024B1B685B699B
:104A3000019308BD3C02030008B5024B1B689B694B
:104A4000019308BD3C02030008B5024B1B68DB69FB
:104A5000019308BD3C02030008B5024B1B681B6AAA
:104A6000019308BD3C02030008B5024B1B689B6A1A
:104A7000019308BD3C02030008B5024B1B681B6A8A
:104A8000019308BD2802030008B5024B1B685B6A4E
:104A9000019308BD2802030008B5024B1B689B6AFE
:104AA000019308BD2802030008B5024B1B68DB6AAE
:104AB000019308BD2802030008B5024B1B681B6B5D
:104AC000019308BD2802030008B5024B1B685B6B0D
:104AD000019308BD2802030008B5024B1B681B6C3C
:104AE000019308BD2802030008B5024B1B685B6CEC
:104AF000019308BD7402030008B5024B1B681B68D4
:104B0000019308BD4C02030008B5024B1B685B68AB
:104B1000019308BD4C02030008B5024B1B681B69DA
:104B2000019308BD4C02030008B5024B1B685B698A
:104B3000019308BD4C02030008B5024B1B689B693A
:104B4000019308BD4C02030008B5024B1B68DB69EA
:104B5000019308BD4C02030008B5024B1B681B6A99
:104B6000019308BD4C02030008B5024B1B685B684B
:104B7000019308BD2002030008B5024B1B685B6966
:104B8000019308BD2002030008B5024B1B68DB6CD3
:104B9000019308BD2002030008B5024B1B685B6D42
:104BA000019308BD2002030008B5034B1B68D3F82E
:104BB0008830019308BD00002002030008B5034BB4
:104BC0001B68D3F89430019308BD00002002030055
:104BD00008B5024B1B685B68019308BD40020300E7
:104BE00008B5024B1B689B68019308BD4002030097
:104BF00008B5024B1B68DB68019308BD4002030047
:104C000008B5024B1B681B69019308BD40020300F5
:104C100008B5024B1B685B69019308BD40020300A5
:104C200008B5024B1B689B69019308BD4002030055
:104C300008B5024B1B68DB69019308BD4002030005
:104C400008B5024B1B681B6A019308BD40020300B4
:104C500008B5024B1B681B6B019308BD40020300A3
:104C600008B5024B1B685B6B019308BD4002030053
:104C700008B5024B1B681B68019308BD4402030082
:104C800008B5024B1B685B68019308BD4402030032
:104C900008B5024B1B685B69019308BD4402030021
:104CA00008B5024B1B681B6A019308BD4402030050
:104CB00008B5024B1B68DB6B019308BD440203007F
:104CC00008B5024B1B681B68019308BD1C0203005A
:104CD00008B5024B1B685B68019308BD1C0203000A
:104CE00008B5024B1B689B68019308BD1C020300BA
:104CF00008B5024B1B685B6A019308BD1C020300E8
:104D000008B5024B1B68DB6A019308BD1C02030057
:104D100008B5024B1B681B6B019308BD1C02030006
:104D200008B5024B1B68DB6B019308BD1C02030036
:104D3000002211464068FFF783BF002211464068F9
:104D4000FFF78EBF00224068FFF782BF002281F08C
:104D500001014068FFF76CBF00231A4619464068FE
:104D6000FFF75EBF00231A4619464068FFF750BFA1
:104D7000002211464068FFF743BF002211464068F9
:104D8000FFF72EBF002202214068FFF731BF00234A
:104D90001A464068FFF71CBF024B03225A60024AC2
:104DA0001A607047A0E30320EC7B0D00704710B53C
:104DB0001021044601F0BDFC204610BD70B5084B23
:104DC0000360044600250E4640F80C5FFFF7ECFD3B
:104DD00030462671FFF7A0FDA560204670BD00BFDC
:104DE000207C0D00C068FFF7EFBD0000400830B523
:104DF0001860002418688842E5B206D90134082CEE
:104E000002D040081860F5E70725024B5B5D137080
:104E100030BD00BF287C0D002DE9F04380468FB0E7
:104E2000C0680F46FFF7C8FD98F80440142200211F
:104E300009A802F07AFD0B232046002209A9ADF84B
:104E40002430FFF779FD9DF82D404CB19DF82C5092
:104E50002DB90C9E9DF834909DF8354003E0002458
:104E6000A146264601253B790DB1002B40D19D423C
:104E70000BD1BA68B24208D18DF820908DF821404C
:104E8000BDF82010BA89914232D023BB8DF80F3083
:104E90000DF10F0204ABB9680A98FFF7A7FF3B7941
:104EA00005B113BBAB4209D000213B7B01917C7B58
:104EB0009DF80F2098F80400009413E0BB68B342FB
:104EC000F2D38DF820908DF82140BDF82020BB89C9
:104ED0009A42E9D109E0002398F804000193009375
:104EE0001A460121FFF730FD02E0049BB342DBD1FB
:104EF00000200FB0BDE8F08308B50079FFF704FD8E
:104F0000C0B208BD0079FFF70FBD0000044B0020C0
:104F10004FF6FF72187058809A80FFF725BE00BFC9
:104F2000A8E3032010B5044602F053FD013823180E
:104F30002046984206D20278197800F8011B03F83F
:104F40000129F6E710BD70B50C46911E222920D824
:104F50002546294610B9234430220EE0B0FBF2F674
:104F600002FB1600C1B205F8011B092894BF3031BD
:104F7000573105F8011C3046EBE7994202D201F89F
:104F8000012BFAE7002320460B70FFF7CBFF2046EA
:104F900070BD002070BD38B5031E0C4615460BDAF7
:104FA000B3F1004F4FF02D0214BF584218460123B1
:104FB0000A702A46194400E00123FFF7C4FF204687
:104FC00038BD00002DE9F14F59EC108B07460E4615
:104FD0000022002310EE100A494602F053FA28B1CD
:104FE00009F1004399462D23337001360023012433
:104FF0000A22D9B28F4202D954430133F9E720463D
:1050000001F068FF42464B4601F0CAFF82468B46DC
:1050100002F0D6FA8046894601F08CFF02460B4624
:105020005046594601F008FE0022174B02F03EFAA6
:1050300018B118F1010849F10009E51722462B467D
:105040004046494602F0A4FA01230A223146FFF7FE
:105050007AFFAFB1304602F0BCFC2E23335401304E
:10506000064422462B464046494602F091FA3B460A
:10507000104631460A2201B0BDE8F04FFFF763BF8A
:1050800001B0BDE8F08F00BF0000E03F10B504465E
:105090000068FFF71DFE204610BD10B504460068ED
:1050A00008B1FFF715FE00232360A360636010BD05
:1050B00038B504460D4600680131FFF711FE10B106
:1050C00084E82100012038BD10B50368044613B1FF
:1050D00043688B4207D22046FFF7EAFF20B1A3685E
:1050E0000BB922681370012010BD70B50E46114631
:1050F00004461546FFF7E8FF18B92046FFF7CDFF35
:1051000009E02A463146A560206802F003FC2268C7
:10511000A3680021D154204670BD38B50023044651
:1051200003604360836003730D4639B1084602F0A3
:1051300050FC294602462046FFF7D7FF204638BDDF
:1051400038B5054600680C4660B16A688B689A42BB
:1051500006D3096802F01AFCA368AB6000230AE0DA
:10516000FFF7B6FD23682B6063686B60A368AB60D4
:10517000002323606360A36038BD884210B50B46EE
:10518000044607D0096819B19A68FFF7AEFF01E03D
:10519000FFF783FF204610BD10B5002304460360CF
:1051A000436083600373FFF7E8FF204610BD884229
:1051B00010B5044601D0FFF7C3FF204610BD38B537
:1051C00005460C4641B1084602F003FC2146024662
:1051D0002846FFF78AFF01E0FFF75FFF284638BD4A
:1051E00010B5044600238AB023606360A360237374
:1051F000084601A9FFF7CFFE01A92046FFF7DFFF10
:1052000020460AB010BD30B500238BB00360436068
:1052100083600373044610EE100ACDB201F06CFEF9
:1052200041EC100B01A92846FFF7CCFE01A920464E
:10523000FFF7C5FF20460BB030BD10B500238AB084
:1052400004460360436083600373C8B201A9FFF79B
:10525000B9FE01A92046FFF7B2FF20460AB010BDF3
:1052600070B504460E4609B9002070BD6AB1836866
:10527000D5182946FFF728FF0028F5D02068A36835
:105280003146184402F082FBA560012070BD10B5C4
:105290008A6809680446FFF7E3FF10B92046FFF764
:1052A000FCFE204610BD38B504460D4641B1084607
:1052B00002F08FFB294602462046FFF7D1FF10B9C6
:1052C0002046FFF7EAFE204638BD006808B102F02C
:1052D0000FBB70470B68036013B15A6801325A6004
:1052E00070470000024800230360FFF775BB00BF52
:1052F000B0E30320F8B506460D468F180024BD42E2
:105300000CD0336815F8011B9B683046984700287D
:1053100001DB0444F3E7002C08BF04462046F8BD37
:1053200070B505460C46084649B102F052FB2B68A1
:10533000024621462846DB68BDE87040184770BD2C
:1053400008B5FFF7EDFF08BD03689B68184738B53F
:105350000D210546FFF7F8FF0A2104462846FFF70E
:10536000F3FF204438BD30B58BB00B4600218DF8DB
:105370002410012A98BF0A220DF12304B3FBF2F591
:1053800005FB123303F0FF03092B94BF303337338F
:10539000DBB2214604F801392B46002DEED1FFF790
:1053A000BFFF0BB030BD10B42AB903685DF8044BE1
:1053B0009B68C9B21847D2B25DF8044BFFF7D3BF60
:1053C000FFF7F1BF2DE9F04107460E4615462AB911
:1053D0000368C9B29B68BDE8F04118470A2A02D1A8
:1053E000002901DA04E0D2B2BDE8F041FFF7BBBF0B
:1053F0002D21FFF7A9FF2A46044671423846FFF7E0
:10540000B2FF2044BDE8F081FFF7DCBF2DE9F04793
:1054100057EC106B82460D4610EE102A3B4610EEFC
:10542000100A394602F056F808B1484912E027F050
:1054300000494FF0FF32464B3046494602F04AF8E9
:1054400068B94FF0FF32424B3046494602F024F82B
:1054500028B940495046FFF763FFBDE8F0874FF099
:1054600060423D4B3046394602F02AF808B13B49CC
:10547000F0E74FF060423A4B3046394602F002F80E
:105480000028F4D1002200233046394601F0FAFF0B
:1054900040B12D215046FFF757FF07F10043044666
:1054A0001F4600E004462F494FF0000800205FFA35
:1054B00088F39D4206D900222B4B01F09BFE08F198
:1054C0000108F4E732463B4601F0B8FB0F460646BA
:1054D00002F03EF80A22014680465046FFF743FF9D
:1054E00004447DB3404601F0E5FC02460B463046DD
:1054F000394601F0A1FB06460F4650461B49FFF70F
:105500000FFF0444184B00223046394601F048FD95
:105510000F46064601F0F4FF0A2201468046504637
:10552000FFF750FF0444404601F0D4FC02460B460E
:105530003046394601F080FB013D15F0FF05064677
:105540000F46DFD12046BDE8F08700BF307C0D005C
:10555000FFFFEF7F3A7C0D00FFFFEF41347C0D0031
:10556000FFFFEFC10000E03F00002440387C0D0049
:10557000C9B2FFF74BBF38B5C9B20546FFF746FFC2
:1055800004462846FFF7E3FE204438BD0CB42DE95D
:10559000F04387B000AF07F13804054654F8049B88
:1055A0003C600E4623464A461421381DFFF7A0FBF7
:1055B000132805D8391D2846FFF7B2FE044613E02C
:1055C00000F1080323F00703E846ADEB030D411C8F
:1055D00023464A4668463C60FFF78AFB69462846F0
:1055E000FFF79EFE0446C5461EB12846FFF7AFFEF4
:1055F000044420461C37BD46BDE8F04302B0704766
:10560000014B024A1A607047B4E30320B17C0D00DD
:10561000024B1A68024B1A60704700BF60E2032019
:10562000B8E303200021FFF7A7BA10B5836804464A
:1056300013B1032201469847204610BD10B5044619
:10564000FFF7F3FF204610BD13B50B46044603C811
:105650008DE8030093E8030084E803009DE803005D
:1056600083E8030002B010BD0348044A0449002344
:10567000836001F059B800BFBCE30320D0E20320EF
:105680003D560D007047007D70470000037D1BB143
:105690008369B3F1004F02D19FED050A704707EE11
:1056A000903A9FED047AF8EEE77A87EE870A704722
:1056B000000000000000C842037D1BB1036AB3F183
:1056C000004F02D19FED050A704707EE903A9FED1B
:1056D000047AF8EEE77A87EE870A70470000000048
:1056E0000000C84270B50D4606460A228168284669
:1056F000FFF78AFE2C2104462846FFF725FE0A22E2
:105700000444F1682846FFF77FFE204470BDA0F1F5
:105710000400FFF7E7BF10B52821044601F009F89F
:10572000204610BD037D7BB1436A002B0CDB07EEE6
:10573000903ADFED076A9FED070AB8EEE77AC7EE09
:10574000267A27EE800A7047BFEE000A704700BF36
:1057500000FF7F470000C842037D7BB1C369002B77
:105760000CDB07EE903ADFED076A9FED070AB8EE13
:10577000E77AC7EE267A27EE800A7047BFEE000A66
:10578000704700BF00FF7F470000C84230B50D469C
:1057900000F110040FCD0FC495E8030084E8030066
:1057A000012030BD08B50C4B33B100F029FC036873
:1057B0001B699847002809DC084B63B100F028FDFD
:1057C00003681B699847002803DC08BDAFF300801D
:1057D000F2E7AFF3008008BD000000000000000009
:1057E00008B5FFF7DFFFFFF7BFF8014B186008BDF2
:1057F00034E7032007B5002300931A466FF07701C2
:10580000FFF7DCF903B05DF804FB000007B543883F
:105810000A2B08D0502B09D1094B1B683BB103B0B0
:105820005DF804EB1847FFF7E5FF06E0002300935F
:105830001A466FF07701FFF7C1F903B05DF804FB7A
:10584000CCE3032010B5FFF787F8044602F076F8A2
:10585000074B13B12046AFF3008000210448FFF747
:1058600027FA00210348BDE81040FFF79DB900BFAB
:10587000000000000D580D0070470020704710B563
:105880001021044600F055FF204610BD08B508B1B0
:10589000FFF7F5FF08BD0022026010B54FF69C72BD
:1058A0008280B1F9044084808A8002680C680460B8
:1058B0000A6010BD10B504460068FFF709FA2046DB
:1058C00010BD38B5C468F4B12378022B03D104F1BC
:1058D0000C00FFF7EFFF656835B12846FFF7A5FE1E
:1058E0001021284600F025FFA56835B12846FFF7AE
:1058F0009CFE1021284600F01CFF20461421BDE824
:10590000384000F016BF38BD10B588B00446684670
:10591000FFF703FC694604A8FFF73EFC04A8A04774
:10592000044604A8FFF7B2FB6846FFF7AFFB20462A
:1059300008B010BDF0B5102485B007460E461546D8
:1059400000212246684601F0F0FF00226946104619
:10595000ADF80040029703960195FFF791F905B065
:10596000F0BD13B5044691E8050000234B600B60C1
:105970002060626001A801930093FEF733FC20468B
:1059800002B010BDF7B50C4602AD54F8043B45F823
:10599000083D06460F4601A82146FFF79BFC294615
:1059A0003046FFF7DEFF01A8FEF71CFC2046FEF79D
:1059B00019FC3846082100F0BCFE304603B0F0BDAB
:1059C00038B500230446036010200D46FEF765FB42
:1059D00028B1012343608360024B0360C5602060EF
:1059E000204638BD847D0D00826810B50AB900F0EC
:1059F000A2FEC368BDE81040184708B5006800F172
:105A00001001FFF7F1FF08BD826810B50AB900F078
:105A100092FEC368BDE81040184708B5006800F161
:105A20001001FFF7F1FF08BD38B5002383608B68D4
:105A300004460D462BB102229847EB68E360AB6841
:105A4000A360204638BD0000F0B589B00468684600
:105A5000FFF721FF00238DF808304FF00202D4E851
:105A60004F3F002B03D1C4E8412F0029F7D102D0CA
:105A70008DF8083063E014F10C0503D06946284620
:105A8000FFF709FFBFF35F8F01236370002004F16C
:105A90000803BFF35F8F53E8006F43E80002002A5A
:105AA000F9D1BFF35F8F002E49D0FFF76DF820B119
:105AB00029463046FFF798FF3AE0314602A8FFF743
:105AC000B3FFE068B4F9105008B101F067FF069029
:105AD0001020ADF81C50FEF7E0FA0546E8B10027AB
:105AE00087601820FEF7D9FA044688B1014687601E
:105AF00002A8FFF7A9FD049BA268A360059B04927E
:105B000006A9E268E36004F110000592FFF7C3FE06
:105B10000D4BEB600D4B2C60AB6006A8FFF7CAFE87
:105B200002A8FFF782FD002229460948FFF734F852
:105B30003046FFF77AFD1021304600F0FAFD684646
:105B4000FFF7B8FE09B0F0BDFB590D00715C0D0008
:105B50005D620D002DE9F04F8BB006460F46904672
:105B600099469DF850A0FFF793F807AD834630BBE8
:105B70004FF62E73059005A92846ADF81830FFF7AB
:105B80008AFE1420FEF789FA044658B102230370F6
:105B900001234370C0F804B0C0F808B029460C30A7
:105BA000FFF779FE3046214640F8044BFFF708FF27
:105BB0002846FFF77FFE05A8FFF77CFE52E0002491
:105BC0000C2314206C60AC600793FEF766FA014664
:105BD00018B1047044704460846004A80391FFF716
:105BE000EFFE224B08930820FEF757FA044628B12F
:105BF000039B40F8043B04A9FFF76CFB00955FFA98
:105C00008AF34A46414638460994FFF749F820B9D5
:105C1000039B5B7803F0FF0283B1039B059304A908
:105C200006A8FFF757FB05A93046FFF79AFE06A81E
:105C3000FEF7D8FA04A8FEF7D5FA13E04FF69C73E6
:105C400005A903A80592ADF81830FFF7FDFE05A8D9
:105C5000FFF730FE05A80999FFF794FE06A8FEF7A6
:105C6000C1FADAE730460BB0BDE8F08FE15D0D0018
:105C7000022AF8B5044606D0032A17D0012A22D1F9
:105C80000B6803601FE018200E68FEF706FA054651
:105C900050B13146FFF7C8FE3069B6F9147008B14B
:105CA00001F07CFE2861AF8225600CE0046854B1ED
:105CB00004F11000FFF7FEFD2046FFF7B6FC1821A7
:105CC000204600F036FD0020F8BD38B50023836083
:105CD0008B6804460D462BB102229847EB68E360BF
:105CE000AB68A360204638BD022A70B5044606D0D2
:105CF000032A11D0012A18D10B68036015E0142083
:105D00000E68FEF7CAF9054620B13146FFF7DDFF00
:105D1000337C2B74256008E0046834B12046FFF71B
:105D200084FC1421204600F004FD002070BD00001A
:105D3000F0B5002387B00C46BFF35F8F50E8006FCB
:105D400040E80032002AF9D1BFF35F8F002E3FD028
:105D50001846FEF719FF074620B121463046FFF7E7
:105D600053FE2EE0314601A8FFF7AFFF23788DF8F0
:105D700014301020FEF791F90546D0B18760142049
:105D8000FEF78BF9044678B18760014601A8FFF75A
:105D90005BFC039BA268A360049B0392E268E36040
:105DA0009DF81430049223740A4BEB600A4B2C606C
:105DB000AB6001A8FFF739FC002229460748FEF72F
:105DC000EBFE3046FFF731FC1021304600F0B1FC0D
:105DD00007B0F0BD1B5A0D00E95C0D005D620D00BF
:105DE00030B585B004460D4668461146FFF7CAFD3A
:105DF0007CB124B228460DB101F0D0FD029002A979
:105E00006846ADF80C40FFF71FFE02A8FFF752FDF1
:105E10001DE000988DF808404FF00102D0E84F3F98
:105E2000A34203D1C0E8412F0029F7D102D08DF859
:105E300008300CE010F10C014FF0010318BF0373A0
:105E4000BFF35F8F043000F8033CFFF771FF01A838
:105E5000FEF7C8F905B030BD704710B518210446EB
:105E600000F067FC204610BDF0B5037D062B8DB019
:105E70000E4600F104074FF0000402D000F10805BF
:105E800018E00CAD394605F8304D2F232A460A207C
:105E9000FEF7AAFD284601F09CFD33680246DB6848
:105EA0002946304698470FE024B12E213046FFF7AF
:105EB0004BFA044415F8011D0A223046FFF780FA18
:105EC000BD420444F0D120460DB0F0BD10B5054BE5
:105ED0000446112240F8043B002101F026FD204633
:105EE00010BD00BFA07D0D000346074A10B543F862
:105EF000042B01F1100251F8044B43F8044B91427A
:105F0000F9D10A781A7010BDA07D0D0010B59DF86A
:105F1000084044EA032343EA024242EA01610423BF
:105F20004160037510BD37B50D788B784A78C97814
:105F300000912946FFF7EAFF03B030BD4174704776
:105F4000704708B50021007CFEF7F6FD30EA20001E
:105F500028BF4FF0FF3008BD08B50121007CFEF7D7
:105F6000EBFD30EA200028BF4FF0FF3008BD08B538
:105F7000007CFEF7D9FD20EAE07008BD08B5007C82
:105F8000FEF7CAFD20EAE07008BD007CFEF7E4BD24
:105F900010B51421044600F0CCFB204610BD38B5E6
:105FA0000446007C0D46FEF7BFFD002801DC607C46
:105FB00028B12946207CFEF7C7FD20EAE07038BDF5
:105FC00010B50446002363604FF47A73A360054B59
:105FD000236001230846217463741146FEF78CFD8B
:105FE000204610BDB47D0D000022007CFEF78CBD64
:105FF00010B514220446002101F097FC204610BD84
:1060000030B50E4D87B001A8FFF7F2FF296811F0F7
:10601000010410D12846FEF746F860B101AA2146D6
:106020000748FFF7CDFF2846FEF742F8054A064924
:10603000034800F079FB024807B030BDD0E30320ED
:10604000D4E30320D0E20320415F0D00002211467B
:106050004068FEF7D5BD002211464068FEF7F0BD4E
:10606000002211464068FEF7FBBD00224068FEF7A3
:10607000EFBD002281F001014068FEF7D9BD002389
:106080001A4619464068FEF7CBBD00231A4619464A
:106090004068FEF7BDBD002211464068FEF7A0BD76
:1060A000002202214068FEF7A3BD00231A46406883
:1060B000FEF78EBDF0B51B4B036000250F4628335D
:1060C000182689B043608560C5603246294604467B
:1060D000103001F02AFC2A4629467868FEF790FD28
:1060E00008B9A0601BE02946324602A80095019538
:1060F00001F01BFC02A96846ADF80860FEF7F4FC4D
:1061000010B10123A3600AE0009B019AA360E26042
:106110000BB90223A36002A92046FFF737FB2046F4
:1061200009B0F0BD507D0D0038B5084C28252A4631
:106130000021204601F0F9FB4FF0FF336360044B70
:10614000258004225A60034A1A6038BDF0E3032018
:10615000E8E30320E47D0D0070474174704708B503
:10616000007CFEF781FC20EAE07008BD08B5007CE9
:10617000FEF752FC20EAE07008BD08B5007CFEF78F
:106180005BFC30EA200028BF4FF0FF3008BD08B5A7
:10619000007CFEF749FC30EA200028BF4FF0FF30BA
:1061A00008BD007CFEF750BC10B51421044600F079
:1061B000C0FA204610BD70B5457C04460E4625B990
:1061C000007CFEF751FC002805DD3146207CBDE84F
:1061D0007040FEF719BC284670BD000010B504469B
:1061E00008461146002262604FF47A72A260054AA6
:1061F00022600122207462741A46FEF7FDFB2046DD
:1062000010BD00BF187E0D00007CFEF725BC00000D
:1062100038B50C4D296811F0010411D12846FDF75D
:1062200042FF68B1084A094B09482146FFF7D6FFEB
:106230002846FDF73DFF074A0749054800F074FA74
:10624000034838BDB0E40320B4E403202CE4032069
:1062500018E40320D0E2032059610D0010B58368D3
:1062600004460BB900F067FAC3689847A3681BB1EE
:10627000032221462046984720461021BDE81040C1
:1062800000F057BA7047F8B5064615460C468F1809
:10629000BC4206D0336814F8011B9B68304698470F
:1062A000F6E72846F8BD0022007CFEF7E5BB00219A
:1062B000007CFEF7E9BB0021007CFEF7EDBB00216E
:1062C000007CFEF7F1BB0021007CFEF7F5BB10B5AA
:1062D0001421044600F02DFA204610BD10B50446E6
:1062E0004FF47A730846A3600021044B2074616068
:1062F0002360FEF7F1FB204610BD00BF487E0D0075
:106300000021007CFEF7E0BB002211464068FEF74A
:1063100097BC002211464068FEF7A2BC00224068EC
:10632000FEF796BC002281F001014068FEF780BCB8
:1063300000231A4601214068FEF772BC00231A466A
:1063400019464068FEF764BC002211464068FEF71B
:1063500057BC002211464068FEF742BC00220221D1
:106360004068FEF745BC00231A464068FEF730BC83
:1063700038B5054688B104684CB1A3681BB1032247
:106380002146204698471021204600F0D2F92846A1
:106390001421BDE8384000F0CCB938BD10B1036815
:1063A0005B681847704710B503680446BBB158686E
:1063B000FEF7E2FA78B923685A7C12B95868FEF7FA
:1063C000E3FA23685868FEF7E7FA206800232360A1
:1063D00028B1FFF7CDFF206808B1FFF7C9FF2046BD
:1063E00010BD000038B50C4B03600446D0F8CC015A
:1063F00008B1FDF756FED4F8C45135B12846FFF771
:10640000D2FF0421284600F094F9A06808B1FFF7F4
:10641000C5FF204638BD00BF707E0D0038B50E4C5C
:106420000E4B23600025022304F5E4706360A56031
:10643000C4F8C451C4F8C851FEF7CEFA084BC4F8EA
:10644000CC5184F8D05123602046064A0649BDE865
:10645000384000F069B900BF38E50320A47E0D0084
:10646000707E0D00D0E20320E5630D0000231A4684
:106470004068FEF7ADBB002202214068FEF7B8BBC2
:10648000002211464068FEF7ABBB0022114640686F
:10649000FEF7B6BB00231A4619464068FEF7B8BBA4
:1064A00000231A4619464068FEF7BABB002281F065
:1064B00001014068FEF7BCBB00224068FEF7C8BB84
:1064C000002211464068FEF7CBBB0022114640680F
:1064D000FEF7B6BB2DE9F043002495B016460D46F5
:1064E0000746FFF7F3FC214620220CA8009401F098
:1064F0001CFA40230C9321466B460CAA3046FEF74B
:10650000C3F90446002844D1024601216868FEF719
:1065100077FB0221804622466868FEF771FB009EE9
:1065200081462146002E34D0002932D17368022BD7
:1065300002D00A2B09D02AE0B8F1000F27D07169E8
:1065400038460431FFF7EFFC20E0B9F1000F1ED010
:106550007469112201A801F0E8F906238DF81430BE
:1065600001AD04F108031834186859682A4603C2BB
:106570000833A3421546F7D101A906A807ADFFF7D6
:10658000B3FC0FCD3C1D0FC42B6823700121F669AD
:10659000C8E70098FEF770F9384615B0BDE8F083FB
:1065A000024B034A1A6000225A6070470CE703202E
:1065B000A47E0D0010B504460F48FEF7A3FC28B1D9
:1065C000A4F10B03022B01D8002010BD00F08CF8C1
:1065D000FFF796FE08B1012CF6D9FFF719FEFFF779
:1065E00013FE18B1A4F10903012BEDD9232C8CBFA4
:1065F0000020012010BD00BF14E70320232838B578
:1066000004460D460AD8FF2908D0FFF7D3FF28B16A
:1066100029462046BDE83840FEF74EB938BD38B5AA
:1066200004460D46FEF750F9FF2810D0062804D87E
:106630004D2323FA00F0C30709D42046FFF7BAFF21
:1066400028B129462046BDE83840FEF745B938BD97
:1066500010B50446FEF738F90438C0B2012808D94D
:106660002046FFF7A7FF20B12046BDE81040FEF707
:106670003BB9002010BD0D2810B504469CBF0E3458
:10668000A4B22046FFF796FF50B103212046FEF743
:106690000BF9032804D12046BDE81040FEF72CB9C1
:1066A000002010BD70B50C4C0C4E0D4D0021204645
:1066B000FEF784FB20460B4C3246294600F034F8A6
:1066C00001212046FEF77AFB324629462046BDE8E6
:1066D000704000F029B800BF14E70320D0E2032087
:1066E000AD4D0D0024E7032038B50B4D296811F09E
:1066F00001040FD12846FDF7D6FC58B121460748C2
:10670000FFF7ECFD2846FDF7D3FC054A0549034891
:1067100000F00AF8014838BD38E703203CE70320C1
:10672000D0E2032085620D000B460146184601F0B9
:10673000E3B8FDF7B4BC08B5FEF7E2FA184B1A68E7
:10674000D1075CBF01221A60164B1A68D2075CBFE2
:1067500001221A60144B1A68D0075CBF01221A602C
:10676000124B1A68D1075CBF01221A60104B1A68DD
:10677000D2075CBF01221A600E4B1A68D0075CBFBB
:1067800001221A600C4B1A68D1075CBF01221A6003
:106790000A4B1A68D2075CBF01221A60704700BF1B
:1067A0006CE7032068E7032064E7032060E7032029
:1067B0005CE7032058E7032054E7032050E7032059
:1067C000244B1A68D0075CBF01221A60224B1A685A
:1067D000D1075CBF01221A60204B1A68D2075CBF48
:1067E00001221A601E4B1A68D0075CBF01221A6092
:1067F0001C4B1A68D1075CBF01221A601A4B1A6839
:10680000D2075CBF01221A60184B1A68D0075CBF20
:1068100001221A60164B1A68D1075CBF01221A6068
:10682000144B1A68D2075CBF01221A60124B1A6817
:10683000D0075CBF01221A60104B1A68D1075CBFF9
:1068400001221A600E4B1A68D2075CBF01221A603F
:10685000704700BF9CE7032098E7032094E70320DC
:1068600090E703208CE7032088E7032084E70320D8
:1068700080E703207CE7032078E7032074E7032008
:1068800070E70320244B1A68D0075CBF01221A600E
:10689000224B1A68D1075CBF01221A60204B1A688C
:1068A000D2075CBF01221A601E4B1A68D0075CBF7A
:1068B00001221A601C4B1A68D1075CBF01221A60C2
:1068C0001A4B1A68D2075CBF01221A60184B1A686B
:1068D000D0075CBF01221A60164B1A68D1075CBF53
:1068E00001221A60144B1A68D2075CBF01221A6099
:1068F000124B1A68D0075CBF01221A60104B1A684D
:10690000D1075CBF01221A600E4B1A68D2075CBF28
:1069100001221A60704700BFCCE70320C8E70320BC
:10692000C4E70320C0E70320BCE70320B8E7032047
:10693000B4E70320B0E70320ACE70320A8E7032077
:10694000A4E70320A0E70320184B1A68D1075CBF17
:1069500001221A60164B1A68D2075CBF01221A6026
:10696000144B1A68D0075CBF01221A60124B1A68D8
:10697000D1075CBF01221A60104B1A68D2075CBFB6
:1069800001221A600E4B1A68D0075CBF01221A6000
:106990000C4B1A68D1075CBF01221A600A4B1A68B7
:1069A000D2075CBF01221A60704700BFECE70320EA
:1069B000E8E70320E4E70320E0E70320DCE7032027
:1069C000D8E70320D4E70320D0E703202DE9F043E4
:1069D0002DED028B8BB055EC104B00F057F8294B86
:1069E000B0EE408AF0EE608A93F90060731C12D01A
:1069F00022462B462046294600F06CFD074650B93A
:106A00004FF000084FF000092046294642464B4609
:106A100000F038FD40B9B0EE480AF0EE680A0BB05D
:106A2000BDEC028BBDE8F083174B08970122CDE93E
:106A30000445CDE902458DE80C00B6B142464B460F
:106A40004046494600F0D6FB022ECDE906010ED1A4
:106A5000FEF766F921230360089B73B99DED060BD1
:106A60000BB0BDEC028BBDE8F083CDE9068968462A
:106A700000F0DCF80028EFD1EAE7FEF751F9089BB7
:106A80000360EBE764E20320D07E0D002DE9F041C6
:106A9000654955EC104B0E462940B14200F09780F5
:106AA000002D2B4610EE102A74DD2F157FD0A7F293
:106AB000FF37C3F31303F90743F4801365D403EBE3
:106AC000D27100260B447F105200B64616204FF4B8
:106AD00000110EEB01049C424FEAD2754FEA4202CC
:106AE00003DC1B1B04EB010E0E44013805EB4303D2
:106AF0004FEA5101EDD1844620244FF0004109E0D6
:106B000020D003EBD275013C4FEA51012B444FEAF0
:106B1000420220D09E4501EB0C05F1DA002D05EB79
:106B2000010C09DBF0469542CEEB030300D9013B93
:106B3000521B0844C646E4E7BCF1000FF2DB0EF13D
:106B40000108F0E795421ED8002D05EB010C50DB43
:106B500098460023ECE7134304D0421C4DD000F0CC
:106B60000103184440087110F30701F17F5101F54A
:106B7000001148BF40F0004001EB0753024643ECD0
:106B8000102BBDE8F0817346BBE75B0003EBD273CB
:106B9000520094E725F00041214328D0ADBB2F4699
:106BA000D30A153F5205002BFAD0DD0228D400216C
:106BB00000E001465B00DC0201F10100F9D5C0F103
:106BC000200422FA04F423437F1A82406FE710EE78
:106BD000102A2B4610EE100A294600F0E1F9224651
:106BE0002B4600F02BF841EC100BBDE8F081BDE81E
:106BF000F081BCF1000FA2DAAAE701362046B2E725
:106C000020244FF0FF310020DBE710EE102A2B4646
:106C10002046294600F010F802460B4600F0EAFA3A
:106C200041EC100BBDE8F0810000F07F00207047C0
:106C300081F0004102E000BF83F0004330B54FEA2D
:106C400041044FEA430594EA050F08BF90EA020F9A
:106C50001FBF54EA000C55EA020C7FEA645C7FEA2D
:106C6000655C00F0E2804FEA5454D4EB5555B8BF50
:106C70006D420CDD2C4480EA020281EA030382EAC1
:106C8000000083EA010180EA020281EA0303362D53
:106C900088BF30BD11F0004F4FEA01314FF4801C26
:106CA0004CEA113102D0404261EB410113F0004F38
:106CB0004FEA03334CEA133302D0524263EB4303EF
:106CC00094EA050F00F0A780A4F10104D5F1200E8D
:106CD0000DDB02FA0EFC22FA05F2801841F10001E8
:106CE00003FA0EF2801843FA05F359410EE0A5F1BC
:106CF00020050EF1200E012A03FA0EFC28BF4CF0ED
:106D0000020C43FA05F3C01851EBE37101F00045A2
:106D100007D54FF0000EDCF1000C7EEB00006EEBAF
:106D20000101B1F5801F1BD3B1F5001F0CD3490839
:106D30005FEA30004FEA3C0C04F101044FEA445290
:106D400012F5800F80F09A80BCF1004F08BF5FEA17
:106D5000500C50F1000041EB045141EA050130BDF7
:106D60005FEA4C0C404141EB010111F4801FA4F19A
:106D70000104E9D191F0000F04BF01460020B1FAEF
:106D800081F308BF2033A3F10B03B3F120020CDA27
:106D90000C3208DD02F1140CC2F10C0201FA0CF005
:106DA00021FA02F10CE002F11402D8BFC2F1200C6A
:106DB00001FA02F120FA0CFCDCBF41EA0C01904020
:106DC000E41AA2BF01EB0451294330BD6FEA040469
:106DD0001F3C1CDA0C340EDC04F11404C4F1200254
:106DE00020FA04F001FA02F340EA030021FA04F366
:106DF00045EA030130BDC4F10C04C4F1200220FABD
:106E000002F001FA04F340EA0300294630BD21FAFA
:106E100004F0294630BD94F0000F83F4801306BFC0
:106E200081F480110134013D4EE77FEA645C18BFB4
:106E30007FEA655C29D094EA050F08BF90EA020F4B
:106E400005D054EA000C04BF1946104630BD91EA43
:106E5000030F1EBF0021002030BD5FEA545C05D146
:106E60004000494128BF41F0004130BD14F5800485
:106E70003CBF01F5801130BD01F0004545F0FE41F9
:106E800041F470014FF0000030BD7FEA645C1ABF2E
:106E9000194610467FEA655C1CBF0B46024650EA65
:106EA000013406BF52EA033591EA030F41F4002191
:106EB00030BD00BF90F0000F04BF0021704730B517
:106EC0004FF4806404F132044FF000054FF00001EC
:106ED00050E700BF90F0000F04BF0021704730B5AD
:106EE0004FF4806404F1320410F0004548BF404282
:106EF0004FF000013EE700BF42004FEAE2014FEAD7
:106F000031014FEA02701FBF12F07F4393F07F4FB1
:106F100081F06051704792F0000F14BF93F07F4FE3
:106F2000704730B54FF4607401F0004521F0004126
:106F300020E700BF50EA010208BF704730B54FF0AC
:106F400000050AE050EA010208BF704730B511F0B1
:106F5000004502D5404261EB41014FF4806404F1E9
:106F600032045FEA915C3FF4DCAE4FF003025FEA6B
:106F7000DC0C18BF03325FEADC0C18BF033202EBF3
:106F8000DC02C2F1200300FA03FC20FA02F001FA4D
:106F900003FE40EA0E0021FA02F11444C1E600BFEC
:106FA00070B54FF0FF0C4CF4E06C1CEA11541DBF9F
:106FB0001CEA135594EA0C0F95EA0C0F00F0DEF86A
:106FC0002C4481EA030621EA4C5123EA4C5350EA4F
:106FD000013518BF52EA033541F4801143F48013A0
:106FE00038D0A0FB02CE4FF00005E1FB02E506F031
:106FF0000042E0FB03E54FF00006E1FB03569CF086
:10700000000F18BF4EF0010EA4F1FF04B6F5007F8B
:1070100064F5407404D25FEA4E0E6D4146EB0606FD
:1070200042EAC62141EA55514FEAC52040EA5E5086
:107030004FEACE2EB4F1FD0C88BFBCF5E06F1ED830
:10704000BEF1004F08BF5FEA500E50F1000041EB67
:10705000045170BD06F0004646EA010140EA020014
:1070600081EA0301B4EB5C04C2BFD4EB0C0541EA36
:10707000045170BD41F480114FF0000E013C00F34B
:10708000AB8014F1360FDEBF002001F0004170BD6F
:10709000C4F10004203C35DA0C341BDC04F1140488
:1070A000C4F1200500FA05F320FA04F001FA05F214
:1070B00040EA020001F0004221F0004110EBD370E1
:1070C00021FA04F642EB06015EEA430E08BF20EA0D
:1070D000D37070BDC4F10C04C4F1200500FA04F3B0
:1070E00020FA05F001FA04F240EA020001F0004142
:1070F00010EBD37041F100015EEA430E08BF20EAB5
:10710000D37070BDC4F1200500FA05F24EEA020EFC
:1071100020FA04F301FA05F243EA020321FA04F02B
:1071200001F0004121FA04F220EA020000EBD370E2
:107130005EEA430E08BF20EAD37070BD94F0000FE2
:107140000FD101F00046400041EB010111F4801F16
:1071500008BF013CF7D041EA060195F0000F18BFC7
:10716000704703F00046520043EB030313F4801F03
:1071700008BF013DF7D043EA0603704794EA0C0FBD
:107180000CEA135518BF95EA0C0F0CD050EA4106D3
:1071900018BF52EA4306D1D181EA030101F0004150
:1071A0004FF0000070BD50EA410606BF1046194678
:1071B00052EA430619D094EA0C0F02D150EA013684
:1071C00013D195EA0C0F05D152EA03361CBF1046C5
:1071D00019460AD181EA030101F0004141F0FE4164
:1071E00041F470014FF0000070BD41F0FE4141F4E8
:1071F000780170BD70B54FF0FF0C4CF4E06C1CEAE8
:1072000011541DBF1CEA135594EA0C0F95EA0C0F9C
:1072100000F0A7F8A4EB050481EA030E52EA033557
:107220004FEA013100F088804FEA03334FF0805578
:1072300045EA131343EA12634FEA022245EA1115A5
:1072400045EA10654FEA00260EF000419D4208BF56
:10725000964244F1FD0404F5407402D25B084FEA03
:107260003202B61A65EB03055B084FEA32024FF4AF
:1072700080104FF4002CB6EB020E75EB030E22BF0C
:10728000B61A754640EA0C005B084FEA3202B6EBCC
:10729000020E75EB030E22BFB61A754640EA5C007B
:1072A0005B084FEA3202B6EB020E75EB030E22BF0B
:1072B000B61A754640EA9C005B084FEA3202B6EB0C
:1072C000020E75EB030E22BFB61A754640EADC00CB
:1072D00055EA060E18D04FEA051545EA16754FEA2D
:1072E00006164FEAC30343EA52734FEAC2025FEA4B
:1072F0001C1CC0D111F4801F0BD141EA00014FF0DA
:1073000000004FF0004CB6E711F4801F04BF0143AA
:107310000020B4F1FD0C88BFBCF5E06F3FF6AFAEC6
:10732000B5EB030C04BFB6EB020C5FEA500C50F156
:10733000000041EB045170BD0EF0004E4EEA1131D9
:1073400014EB5C04C2BFD4EB0C0541EA045170BDE0
:1073500041F480114FF0000E013C90E645EA060E24
:107360008DE60CEA135594EA0C0F08BF95EA0C0F52
:107370003FF43BAF94EA0C0F0AD150EA01347FF49A
:1073800034AF95EA0C0F7FF425AF104619462CE771
:1073900095EA0C0F06D152EA03353FF4FDAE1046D4
:1073A000194622E750EA410618BF52EA43067FF425
:1073B000C5AE50EA41047FF40DAF52EA43057FF4B5
:1073C000EBAE12E74FF0FF3C06E000BF4FF0010CC0
:1073D00002E000BF4FF0010C4DF804CD4FEA410C24
:1073E0007FEA6C5C4FEA430C18BF7FEA6C5C1BD0F1
:1073F00001B050EA410C0CBF52EA430C91EA030F72
:1074000002BF90EA020F0020704710F1000F91EACE
:10741000030F58BF994208BF90422CBFD8176FEA9C
:10742000E37040F0010070474FEA410C7FEA6C5C6A
:1074300002D150EA013C07D14FEA430C7FEA6C5C71
:10744000D6D152EA033CD3D05DF8040B704700BF9D
:107450008446104662468C461946634600E000BFEB
:1074600001B5FFF7B7FF002848BF10F1000F01BDBD
:107470004DF808EDFFF7F4FF0CBF012000205DF888
:1074800008FB00BF4DF808EDFFF7EAFF34BF01200D
:1074900000205DF808FB00BF4DF808EDFFF7E0FFA6
:1074A00094BF012000205DF808FB00BF4DF808EDF7
:1074B000FFF7CEFF94BF012000205DF808FB00BF5E
:1074C0004DF808EDFFF7C4FF34BF012000205DF840
:1074D00008FB00BF4FEA410C7FEA6C5C02D150EA26
:1074E000013C0AD14FEA430C7FEA6C5C02D152EABC
:1074F000033C02D14FF0000070474FF0010070478D
:107500004FEA410212F5001215D211D56FF47873CB
:10751000B3EB625212D94FEAC12343F0004343EA6E
:10752000505311F0004F23FA02F018BF4042704749
:107530004FF00000704750EA013005D111F00040D3
:1075400008BF6FF0004070474FF00000704700BF69
:107550004A0011D212F5001211D20DD56FF47873D2
:10756000B3EB62520ED44FEAC12343F0004343EA27
:10757000505323FA02F070474FF00000704750EA72
:10758000013002D14FF0FF3070474FF000007047DC
:1075900053B94AB9002908BF00281CBF4FF0FF317A
:1075A0004FF0FF3000F0A2B9ADF1080C6DE904CE48
:1075B00000F02AF8DDF804E0DDE9022304B07047AA
:1075C000D0B500220E4B06460F46FFF7E9FCFFF749
:1075D000BFFF0446FFF76EFC00220A4BFFF7E0FCFA
:1075E00002460B4630463946FFF726FBFFF7B0FF51
:1075F0002346002242EA000210461946D0BD00BFD1
:107600000000F03D0000F0412DE9F0478C460E46A9
:107610000446089D002B50D18A4217466CD9B2FA15
:1076200082FEBEF1000F0BD0CEF1200420FA04F44C
:1076300001FA0EF644EA060C02FA0EF700FA0EF40E
:107640004FEA1749220CBCFBF9F01FFA87F809FB37
:1076500010C642EA064600FB08F3B34209D9F61900
:1076600000F1FF3280F02281B34240F21F810238E4
:107670003E44F61AA2B2B6FBF9F309FB136642EADE
:10768000064403FB08F8A04509D9E41903F1FF32C9
:1076900080F00A81A04540F20781023B3C44C8EBE0
:1076A000040443EA00400021002D62D024FA0EF4C5
:1076B00000232C606B60BDE8F0878B4207D9002D5A
:1076C00055D0002185E841000846BDE8F087B3FAAF
:1076D00083F1002940F09080B34202D3824200F24D
:1076E000F880841A66EB03060120B446002D40D0D2
:1076F00085E81010BDE8F08712B90127B7FBF2F753
:10770000B7FA87FEBEF1000F35D1F31B4FEA1748D9
:107710001FFA87FC0121B3FBF8F0220C08FB10369E
:1077200042EA06460CFB00F3B34207D9F61900F112
:10773000FF3202D2B34200F2CE801046F61AA2B255
:10774000B6FBF8F308FB136642EA06440CFB03FCA5
:10775000A44507D9E41903F1FF3202D2A44500F28F
:10776000B5801346CCEB040443EA00409CE729466D
:107770002846BDE8F087CEF1200106FA0EF307FA9D
:107780000EF720FA01F94FEA1748CE4049EA0309FB
:10779000B6FBF8FA4FEA194408FB1A661FFA87FC91
:1077A00044EA06430AFB0CF29A4200FA0EF40AD9A4
:1077B000DB190AF1FF3180F087809A4240F2848021
:1077C000AAF1020A3B449B1A1FFA89F9B3FBF8F1AC
:1077D00008FB113349EA034301FB0CF69E4207D92B
:1077E000DB1901F1FF326BD29E4269D902393B4469
:1077F0009B1B41EA0A418EE7C1F1200E22FA0EF4EA
:107800008B40234320FA0EF706FA01F44FEA134C9B
:1078100026FA0EF63C43B6FBFCF9270C0CFB196666
:107820001FFA83F847EA064609FB08F7B74202FA4F
:1078300001F200FA01FA08D9F61809F1FF3041D235
:10784000B7423FD9A9F102091E44F61BA0B2B6FB0C
:10785000FCF40CFB146640EA064704FB08F8B84544
:1078600007D9FF1804F1FF3028D2B84526D9023CC9
:107870001F4444EA0940C8EB0707A0FB02894F45B3
:1078800044464E4614D329D065B3BAEB040367EBE4
:10789000060707FA0EFECB40CF404EEA030385E809
:1078A00088000021BDE8F0871346F8E61046E0E6C0
:1078B000B8EB020469EB03060138E5E70446D8E7B4
:1078C000114695E78146C0E78A467CE7023B3C4487
:1078D00048E708460AE702383E442FE7C245E7D3A7
:1078E0003E46D1E72946BDE8F08700BF704700BF9C
:1078F0000A22002100F0FCB810B5054C13462CB14B
:107900000A4601460220AFF3008010BD204610BD9C
:107910000000000010B5431E0A44914204D011F843
:10792000014B03F8014FF8E710BD024403469342B0
:1079300002D003F8011BFAE77047000038B5124B7C
:107940001C68A36B0546D3B91820FDF7B9F943F2BB
:107950000E33A06303804AF6CD33438041F23423D3
:1079600083804EF26D63C3804DF6EC630381052383
:1079700043810B23838101220023C0E90423A36BED
:1079800000221D615A6138BDCCE20320034611F884
:10799000012B03F8012B002AF9D17047024B014655
:1079A000186800F003B800BFCCE2032070B50646AB
:1079B00008460C4600F00DF8451C29463046FDF7F8
:1079C000A7F9064618B12A462146FFF7A3FF30461D
:1079D00070BD034613F8012B002AFBD1181A013899
:1079E000704700002DE9F04780464048D0F80090ED
:1079F0000F463D4615F8014B09EB0400407800F0B6
:107A0000080000F0FF0608B12F46F2E72D2C03D145
:107A1000BD1C7C78012603E02B2C04BF7C78BD1CA8
:107A200013B1102B0AD15BE0302C57D1287800F02D
:107A3000DF0058284DD16C7810230235002E14BF7A
:107A40004FF0004C6FF0004C0027BCFBF3FA3846B7
:107A500003FB1ACC09EB040E9EF801E01EF0040FA4
:107A600001D0303C0BE01EF0030E1BD0BEF1010F25
:107A70000CBF4FF0370E4FF0570ECEEB0404A3426D
:107A800010DDB7F1FF3F0AD0504506D801D164455B
:107A900003DC03FB0040012701E04FF0FF3715F83E
:107AA000014BD7E77B1C0CD1002E4FF0220314BFF3
:107AB0004FF000406FF00040C8F800302AB9BDE830
:107AC000F08706B1404272B107B1691E1160BDE88E
:107AD000F0873024002BB1D10823AFE70A23ADE7AC
:107AE000302CA3D0AAE7BDE8F08700BF68E20320EE
:107AF00013460A46014602480068FFF773BF00BFFD
:107B0000CCE2032021400D005D400D0089400D00B6
:107B10008D400D0000000000496E20416C61726DC7
:107B200000416C61726D205265736574002056616E
:107B30006C75653A200049726D7320303A2000441C
:107B4000727965725F416C61726D5F005265736539
:107B5000745F4472796572005369676E616C5F533C
:107B60007472656E677468005369676E616C5F510B
:107B700075616C69747900506F77657200416D7042
:107B80007300300013121110030002000100000006
:107B90000000000000000000CD460D006465666135
:107BA000756C7420004D5342004C5342003C5350BE
:107BB0004953657474696E67732064656661756C9A
:107BC000743E003C53504953657474696E6773206A
:107BD0002573256C75202573204D4F444525643E43
:107BE0000000000000000000000000008F4D0D00AC
:107BF000854D0D007B4D0D00714D0D00654D0D0047
:107C0000594D0D004D4D0D00454D0D003B4D0D00E6
:107C1000314D0D00D5640D00000000000000000093
:107C2000AD4D0D00AF4D0D00000810182028303864
:107C30006E616E006F7666002E00696E660062618E
:107C400075640053657269616C0053657269616C9B
:107C500031007479706500706172616D00636D64EC
:107C600000696400686E64007374726D0066696C0C
:107C700074006C766C0061646448616E646C65725B
:107C80000072656D6F766548616E646C6572006543
:107C90006E756D48616E646C657273004A534F4E29
:107CA00053747265616D4C6F6748616E646C657288
:107CB0000061707000253031307520005D20002596
:107CC00064002C200028293A2000205B00636F64A8
:107CD00065203D200025690064657461696C73202E
:107CE0003D20000D0A006C6E00666E00636F6465D7
:107CF0000064657461696C006E6F6E65007472611A
:107D0000636500696E666F007761726E00657272FE
:107D10006F720070616E696300616C6C005A0025BF
:107D20002B3033643A253032750025592D256D2DC1
:107D300025645425483A254D3A2553257A00617328
:107D40006374696D65000000000000000000000021
:107D500085560D0017570D0087560D0059570D0019
:107D60008D560D0025570D00B9560D00E5560D0036
:107D7000FCFFFFFF000000000F570D000000000097
:107D80000000000079580D007F580D00C3580D0009
:107D90008D580D007B580D00000000000000000011
:107DA000695E0D00595E0D005B5E0D000000000075
:107DB00000000000415F0D00915F0D009F5F0D000E
:107DC000F5520D007D5F0D00435F0D00595F0D0002
:107DD0008B5F0D006F5F0D003D5F0D000000000028
:107DE00000000000AB600D00A1600D0097600D0069
:107DF0004D600D008B600D007F600D0073600D0005
:107E00006B600D0061600D0057600D00D5640D00C2
:107E1000000000000000000059610D00A9610D0084
:107E2000B7610D00F5520D006D610D008F610D0001
:107E30007B610D00A3610D005B610D005F610D00B2
:107E4000000000000000000085620D00CF620D0000
:107E5000A7620D0087620D00AF620D00B7620D00D2
:107E6000BF620D00C7620D000000000000000000AE
:107E700067630D005D630D0053630D0049630D00E2
:107E80003D630D0031630D0025630D001D630D0082
:107E900013630D0009630D00D5640D0000000000A0
:107EA000000000006D640D0077640D0081640D001A
:107EB0008B640D0095640D00A1640D00AD640D0090
:107EC000B9640D00C1640D00CB640D00D5640D00D4
:107ED00073717274000000000020202020202020F8
:107EE000202028282828282020202020202020206A
:107EF000202020202020202020881010101010107A
:107F000010101010101010101004040404040404C5
:107F1000040404101010101010104141414141415F
:107F20000101010101010101010101010101010141
:107F30000101010110101010101042424242424251
:107F40000202020202020202020202020202020211
:107F500002020202101010102000000000000000B9
:107F60000000000000000000000000000000000011
:107F70000000000000000000000000000000000001
:107F800000000000000000000000000000000000F1
:107F900000000000000000000000000000000000E1
:107FA00000000000000000000000000000000000D1
:107FB00000000000000000000000000000000000C1
:107FC00000000000000000000000000000000000B1
:107FD00000000000000000000000000000000000A1
:107FE0000000000000000000000000000000000091
:107FF0000000000000000000000000000000000081
:108000000000000000000000000000000000000070
:108010000000000000000000000000000000000060
:108020000000000000000000000000000000000050
:1080300000000000000000000000000043000000FD
:10804000F9450D0069480D006D480D0071480D009F
:1080500075480D00994D0D000D4F0D00E5520D00B6
:1080600001560D0011560D0069560D0029610D00D5
:108070001D640D00A1650D00A5660D003D670D0096
:10808000C1670D0085680D0049690D000000000002
:0880900078F5FF7F01000000FC
:108098006666666666C65B40000000000000184021
:1080A8003E7D0D0001000000D87E0D00000000009C
:1080B800DC7F0D00FC7F0D001C800D00000000001F
:1080C8000000000000000000000000003C800D00DF
:1080D8000000000000000000000000000000000098
:1080E8000000000000000000000000000000000088
:1080F8000000000000000000000000000000000078
:108108000000000000000000000000006CE20320F6
:10811800FFFFFFFF00000102030405060708090A24
:108128000B0C0D0E0F101112131415161718191A1F
:088138001B1C1D1E1F20280066
:048140007856341227
:04000003D0004020C9
:00000001FF
