:02000002D0002C
:1040000000400D0070800D00000006000D0005014D
:08401000040179050000000025
:04401800447A0D00D9
:1040200009480A49884208B505D0094A824202D0A7
:10403000121A03F00FFC0748074A0021121A03F076
:1040400014FC014808BD00BF40E20320D87F0D00EA
:10405000B0E20320B0E20320F0E7032070B501F0E6
:10406000A7FB074C074BE41AA40800251E46A542EF
:1040700004D056F8253098470135F8E770BD00BFE9
:10408000CC7F0D00807F0D0000F0C2B908B500F0B4
:10409000A3F8BDE8084001F059BB00F0C3BD00F033
:1040A000C9BD00F0C7BD0078B0FA80F04009704784
:1040B00001230370704710687047000010B5094C69
:1040C00004F1300000F098FF04F1200000F094FFAC
:1040D00004F1100000F090FF2046BDE8104000F011
:1040E0008BBF00BF1CE3032038B5046805467CB1D4
:1040F0006368013B63605BB9236820469B6898470F
:10410000A368013BA3601BB923682046DB6898477E
:10411000284638BDF0B58DB007460C4604A827499F
:10412000274D284E00F0AFFF4FB100F0CFFB2B68BA
:10413000C01AC82801D9335D8BB1012309E000F012
:10414000C5FB2B68C01AC82802D9335D012B19D0D2
:10415000002304A8335500F04FFF0DB0F0BD23013C
:10416000194AD158194B049A1B788DF8003008A8C9
:10417000174B01F0A5FC09A8FFF7B6FF00F0A6FB5E
:104180002860DAE72301104A1249D75808A800F03E
:104190007AFF0E4B089A1B788DF8003039460C4B8D
:1041A00002A801F08DFC03A8FFF79EFF08A800F00D
:1041B00023FF00F08BFB2860CAE700BF587A0D0090
:1041C000C4E203206CE303201CE3032018E3032074
:1041D00080F40300617A0D002DE9F0472DED048B8A
:1041E000594DDFF890A192B00024A9461AF80400B6
:1041F00002F0E4F9012845F82400214618BF002008
:10420000FFF788FF01F0B2FE0A2221460646684603
:1042100000F09CFF694604A800F074FF4B4904A815
:1042200000F0F7FF4FEA84080A22074659F8081001
:1042300008A800F08BFF08A9384600F0DEFF0168EF
:10424000304601F033F808A800F0D6FE04A800F0CC
:10425000D3FE684600F0D0FE013401F087FE3C49F1
:1042600001F024F8042CC1D101F080FE01F025F802
:10427000384908A801F0D4FE08A801F023FA062165
:1042800004A800F076FF04A9334800F046FF04A814
:1042900000F0B2FE08A801F0FBF9062104A800F026
:1042A00068FF04A92D4800F038FF04A800F0A4FE20
:1042B00001F05CFE2A4900F0F9FF0021294800F0D6
:1042C00087FA062104A8B0EE408AF0EE608A00F07A
:1042D0006AFF04A9244800F020FF04A800F08CFE27
:1042E0000022224B51EC180B02F0FAFD41EC190BA5
:1042F0000621B0EE490AF0EE690A04A800F053FF67
:1043000004A91B4800F009FF04A800F075FE01F0A5
:104310002DFEB0EE490AF0EE690A022101F0DEF846
:1043200001F024FE0A4900F0C1FF01F01FFEB0EECB
:10433000480AF0EE680A022101F0D3F812B0BDEC91
:10434000048BBDE8F08700BF90E303206D7A0D0079
:10435000037C0D00E8E30320B4E2032080E30320A4
:10436000767A0D00C8E2032070E3032000805D40F0
:104370005CE30320C47A0D0030B589B000F05BFF28
:10438000441E032C27D8154B33F81450002128461F
:1043900002F0FBF84FF4FA7001F0FAF80121284618
:1043A00002F0F3F824010E4B0E491C5904A800F04A
:1043B0006AFE0D4B049A1B788DF8003021460B4B9A
:1043C00002A801F07DFB03A8FFF78EFE04A800F011
:1043D00013FE012000E0002009B030BDC87A0D00B6
:1043E0001CE30320617A0D0018E3032080F403002E
:1043F00007B50823ADF80030044B019304226B4647
:1044000000F0E8FB03B05DF804FB00BFB7400D000F
:10441000F0B589B001F0AAFD4FF4165101F09AFDF4
:10442000254F264D0024385D002102F09DF82646D8
:104430002349013404A800F026FE0A2221466846DA
:1044400000F084FE694604A800F0D7FE014605EBA3
:10445000061000F048FE684600F0CEFD04A800F00B
:10446000CBFD042CDFD1174A17491848184E01F02C
:1044700017FA002436F814500121284602F074F887
:1044800001340121284602F080F8042CF2D11148B1
:1044900000F032F910491148FFF7AAFF10491148FE
:1044A000FFF7A6FF10491148FFF7A2FF1049114876
:1044B000FFF79EFF09B0F0BDC47A0D001CE3032096
:1044C0007F7A0D008C7A0D0079430D0075580D0030
:1044D000C87A0D00C8E20320B4E20320987A0D00E8
:1044E00080E30320A87A0D005CE30320B77A0D0077
:1044F00070E30320BD7A0D00F8B5294B294E2A4FF1
:104500002A4C2B4D01221A7000F080F900F0DEF9E0
:10451000284B31461860384600F0B5FD3846264F26
:104520002246294602F0A0F83146384600F0ABFD9D
:104530003846224F2246294602F096F83146384640
:1045400000F0A1FD38461E4F2246294602F08CF8A5
:104550003146384600F097FD1A4E29461A4D22463C
:10456000384602F081F83146284600F08CFD31468D
:1045700005F1100000F087FD314605F1200000F044
:1045800082FD314605F1300000F07DFD22460F49E5
:10459000002002F069F80E48BDE8F84000F090B83D
:1045A00018E30320C27A0D00B4E20320B0E2032036
:1045B000F94F0D00C4E2032080E303205CE30320F5
:1045C00070E30320257C0D001CE30320BD400D009B
:1045D000C8E203207FB5024608461379956833B1D7
:1045E0003DB90C4904B0BDE8704000F05FBE0A4B15
:1045F00000E00A4B167B0A4C0A49527B0292012EBC
:1046000008BF214601910095074A002100F074FF80
:1046100004B070BDED7A0D00257C0D00DC7A0D0034
:10462000E57A0D00E97A0D00037B0D00054A026072
:1046300000220271044A8260012202730222427344
:10464000704700BFD87A0D00809FD50008B50E20B6
:10465000012101F089FF0248BDE8084000F074BB69
:1046600014E7032070B5124D04460E460146284655
:1046700000F088FB00210E2001F087FFF10001F01F
:10468000F801284600F0EEFB0002208200212846B7
:1046900000F0E8FB238A1843208201210E2001F05C
:1046A00074FF284600F055FBB4F9100070BD00BF40
:1046B00014E7032000F0AAB800F0A8B800F0A6B8EC
:1046C00010B50446FFF7B2FF07A3D3E90023C4E9FE
:1046D000062307A3D3E90023C4E910234FF4B963E9
:1046E000A364204610BD00BF000000000004A040ED
:1046F0006666666666064640FFF7A8BF00000000D3
:104700002DE9F047044600254FFA81FAA66CB54220
:1047100030D251462046FFF7A5FF606102F07AFBD8
:10472000D4E9066732463B468046894602F024FAC1
:104730000022254B02F0D4FB32463B4602F01EFA23
:1047400002460B46C4E906234046494602F014FAE5
:1047500002460B46C4E9082302F0C2FB02460B46A0
:10476000C4E90A23D4E90C0102F008FA0135C4E9CE
:104770000C01CBE712A3D3E90023D4E9100102F026
:10478000AFFB80463046894602F034FB02460B46BA
:10479000D4E90C0102F0CEFC41EC100B02F0B6F8AB
:1047A000404653EC102B494602F09AFB00220023AE
:1047B000C4E90E01C4E90C2341EC100BBDE8F087FD
:1047C0006666666666664A3F0000503F000000006D
:1047D000072901D8FFF794BF9FED010B704700BF79
:1047E000000000000000F0BF00F010B808B5024B58
:1047F0001B689B68019308BD6802030008B5024B63
:104800001B68DB68019308BD6802030008B5024B12
:104810001B681B68019308BD2C02030008B5024BFE
:104820001B689B68019308BD2C02030008B5024B6E
:104830001B68DB68019308BD2C02030008B5024B1E
:104840001B681B69019308BD2C02030008B5024BCD
:104850001B685B69019308BD2C02030008B5024B7D
:104860001B681B68019308BD3002030008B5024BAA
:104870001B685B69019308BD3002030008B5024B59
:104880001B68DB69019308BD3002030008B5024BC9
:104890001B681B6A019308BD3002030008B5024B78
:1048A0001B685B6A019308BD3002030008B5024B28
:1048B0001B68DB6B019308BD3002030008B5024B97
:1048C0001B685B68019308BD1802030008B5024B22
:1048D0001B685B69019308BD1802030008B5024B11
:1048E0001B689B68019308BD4802030008B5024B92
:1048F0001B681B69019308BD4802030008B5024B01
:104900001B685B69019308BD4802030008B5024BB0
:104910001B681B6B019308BD4802030008B5024BDE
:104920001B689B6B019308BD4802030008B5024B4E
:104930001B681B6C019308BD4802030008B5024BBD
:104940001B685B6C019308BD4802030008B5024B6D
:104950001B685B69019308BD6402030008B5024B44
:104960001B681B68019308BD3C02030008B5024B9D
:104970001B68DB68019308BD3C02030008B5024BCD
:104980001B681B69019308BD3C02030008B5024B7C
:104990001B685B69019308BD3C02030008B5024B2C
:1049A0001B689B69019308BD3C02030008B5024BDC
:1049B0001B68DB69019308BD3C02030008B5024B8C
:1049C0001B681B6A019308BD3C02030008B5024B3B
:1049D0001B689B6A019308BD3C02030008B5024BAB
:1049E0001B681B6A019308BD2802030008B5024B2F
:1049F0001B685B6A019308BD2802030008B5024BDF
:104A00001B689B6A019308BD2802030008B5024B8E
:104A10001B68DB6A019308BD2802030008B5024B3E
:104A20001B681B6B019308BD2802030008B5024BED
:104A30001B685B6B019308BD2802030008B5024B9D
:104A40001B681B6C019308BD2802030008B5024BCC
:104A50001B685B6C019308BD7402030008B5024B30
:104A60001B681B68019308BD4C02030008B5024B8C
:104A70001B685B68019308BD4C02030008B5024B3C
:104A80001B681B69019308BD4C02030008B5024B6B
:104A90001B685B69019308BD4C02030008B5024B1B
:104AA0001B689B69019308BD4C02030008B5024BCB
:104AB0001B68DB69019308BD4C02030008B5024B7B
:104AC0001B681B6A019308BD4C02030008B5024B2A
:104AD0001B685B68019308BD2002030008B5024B08
:104AE0001B685B69019308BD2002030008B5024BF7
:104AF0001B68DB6C019308BD2002030008B5024B64
:104B00001B685B6D019308BD2002030008B5034BD1
:104B10001B68D3F88830019308BD00002002030011
:104B200008B5034B1B68D3F89430019308BD00000F
:104B30002002030008B5024B1B685B68019308BDA7
:104B40004002030008B5024B1B689B68019308BD37
:104B50004002030008B5024B1B68DB68019308BDE7
:104B60004002030008B5024B1B681B69019308BD96
:104B70004002030008B5024B1B685B69019308BD46
:104B80004002030008B5024B1B689B69019308BDF6
:104B90004002030008B5024B1B68DB69019308BDA6
:104BA0004002030008B5024B1B681B6A019308BD55
:104BB0004002030008B5024B1B681B6B019308BD44
:104BC0004002030008B5024B1B685B6B019308BDF4
:104BD0004002030008B5024B1B681B68019308BD27
:104BE0004402030008B5024B1B685B68019308BDD3
:104BF0004402030008B5024B1B685B69019308BDC2
:104C00004402030008B5024B1B681B6A019308BDF0
:104C10004402030008B5024B1B68DB6B019308BD1F
:104C20004402030008B5024B1B681B68019308BDD2
:104C30001C02030008B5024B1B685B68019308BDAA
:104C40001C02030008B5024B1B689B68019308BD5A
:104C50001C02030008B5024B1B685B6A019308BD88
:104C60001C02030008B5024B1B68DB6A019308BDF8
:104C70001C02030008B5024B1B681B6B019308BDA7
:104C80001C02030008B5024B1B68DB6B019308BDD7
:104C90001C020300002211464068FFF783BF002278
:104CA00011464068FFF78EBF00224068FFF782BFC1
:104CB000002281F001014068FFF76CBF00231A4613
:104CC00019464068FFF75EBF00231A461946406840
:104CD000FFF750BF002211464068FFF743BF002294
:104CE00011464068FFF72EBF002202214068FFF7FF
:104CF00031BF00231A464068FFF71CBF024B032256
:104D00005A60024A1A607047A0E303202C7B0D0012
:104D1000704710B51021044601F0ABFC204610BDD1
:104D200070B5084B0360044600250E4640F80C5F42
:104D3000FFF7ECFD30462671FFF7A0FDA560204689
:104D400070BD00BF607B0D004FF6FF710079FFF76B
:104D500085BDC068FFF7EABD400830B51860002483
:104D600018688842E5B206D90134082C02D0400800
:104D70001860F5E70725024B5B5D137030BD00BF7F
:104D8000687B0D002DE9F04380468FB0C0680F4668
:104D9000FFF7C4FD98F804401422002109A802F08E
:104DA00064FD0B232046002209A9ADF82430FFF74B
:104DB00075FD9DF82D404CB19DF82C502DB90C9EE1
:104DC0009DF834909DF8354003E00024A146264626
:104DD00001253B790DB1002B40D19D420BD1BA6822
:104DE000B24208D18DF820908DF82140BDF82010F6
:104DF000BA89914232D023BB8DF80F300DF10F02EA
:104E000004ABB9680A98FFF7A7FF3B7905B113BB5C
:104E1000AB4209D000213B7B01917C7B9DF80F20A8
:104E200098F80400009413E0BB68B342F2D38DF805
:104E300020908DF82140BDF82020BB899A42E9D10D
:104E400009E0002398F80400019300931A46012119
:104E5000FFF72CFD02E0049BB342DBD100200FB032
:104E6000BDE8F08308B50079FFF700FDC0B208BDCA
:104E70000079FFF70BBD0000044B00204FF6FF72D6
:104E8000187058809A80FFF721BE00BFA8E3032066
:104E900010B5044602F03DFD013823182046984223
:104EA00006D20278197800F8011B03F80129F6E709
:104EB00010BD70B50C46911E222920D825462946E2
:104EC00010B9234430220EE0B0FBF2F602FB1600CC
:104ED000C1B205F8011B092894BF3031573105F8DC
:104EE000011C3046EBE7994202D201F8012BFAE7A8
:104EF000002320460B70FFF7CBFF204670BD00203B
:104F000070BD38B5031E0C4615460BDAB3F1004FE1
:104F10004FF02D0214BF5842184601230A702A464A
:104F2000194400E00123FFF7C4FF204638BD00000C
:104F30002DE9F14F59EC108B07460E460022002355
:104F400010EE100A494602F03DFA28B109F100437B
:104F500099462D2333700136002301240A22D9B249
:104F60008F4202D954430133F9E7204601F052FF42
:104F700042464B4601F0B4FF82468B4602F0C0FA2F
:104F80008046894601F076FF02460B465046594658
:104F900001F0F2FD0022174B02F028FA18B118F1C7
:104FA000010849F10009E51722462B4640464946CB
:104FB00002F08EFA01230A223146FFF77AFFAFB1E1
:104FC000304602F0A6FC2E2333540130064422461C
:104FD0002B464046494602F07BFA3B461046314696
:104FE0000A2201B0BDE8F04FFFF763BF01B0BDE892
:104FF000F08F00BF0000E03F10B504460068FFF7E7
:1050000019FE204610BD10B50446006808B1FFF730
:1050100011FE00232360A360636010BD38B5044611
:105020000D4600680131FFF70DFE10B184E8210044
:10503000012038BD10B50368044613B143688B42A4
:1050400007D22046FFF7EAFF20B1A3680BB9226818
:105050001370012010BD70B50E461146044615466A
:10506000FFF7E8FF18B92046FFF7CDFF09E02A4611
:105070003146A560206802F0EDFB2268A36800219C
:10508000D154204670BD38B5002304460360436008
:10509000836003730D4639B1084602F03AFC294695
:1050A00002462046FFF7D7FF204638BD38B50546F3
:1050B00000680C4660B16A688B689A4206D309683A
:1050C00002F004FCA368AB6000230AE0FFF7B2FD26
:1050D00023682B6063686B60A368AB600023236068
:1050E0006360A36038BD884210B50B46044607D004
:1050F000096819B19A68FFF7AEFF01E0FFF783FF77
:10510000204610BD10B50023044603604360836051
:105110000373FFF7E8FF204610BD884210B5044630
:1051200001D0FFF7C3FF204610BD38B505460C4639
:1051300041B1084602F0EDFB214602462846FFF742
:105140008AFF01E0FFF75FFF284638BD10B504462F
:1051500000238AB023606360A3602373084601A91B
:10516000FFF7CFFE01A92046FFF7DFFF20460AB078
:1051700010BD30B500238BB00360436083600373C0
:10518000044610EE100ACDB201F056FE41EC100BB1
:1051900001A92846FFF7CCFE01A92046FFF7C5FF6D
:1051A00020460BB030BD10B500238AB00446036022
:1051B000436083600373C8B201A9FFF7B9FE01A978
:1051C0002046FFF7B2FF20460AB010BD70B5044676
:1051D0000E4609B9002070BD6AB18368D51829460A
:1051E000FFF728FF0028F5D02068A368314618444F
:1051F00002F06CFBA560012070BD10B58A680968DB
:105200000446FFF7E3FF10B92046FFF7FCFE2046F7
:1052100010BD38B504460D4641B1084602F079FB91
:10522000294602462046FFF7D1FF10B92046FFF776
:10523000EAFE204638BD006808B102F0F9BA7047AE
:105240000B68036013B15A6801325A60704700005E
:10525000024800230360FFF771BB00BFB0E30320E7
:10526000F8B506460D468F180024BD420CD03368B1
:1052700015F8011B9B6830469847002801DB044461
:10528000F3E7002C08BF04462046F8BD70B505467C
:105290000C46084649B102F03CFB2B680246214609
:1052A0002846DB68BDE87040184770BD08B5FFF7B9
:1052B000EDFF08BD03689B68184738B50D2105460A
:1052C000FFF7F8FF0A2104462846FFF7F3FF2044C2
:1052D00038BD30B58BB00B4600218DF82410012A63
:1052E00098BF0A220DF12304B3FBF2F505FB12333C
:1052F00003F0FF03092B94BF30333733DBB2214671
:1053000004F801392B46002DEED1FFF7BFFF0BB09B
:1053100030BD10B42AB903685DF8044B9B68C9B26C
:105320001847D2B25DF8044BFFF7D3BFFFF7F1BFC8
:105330002DE9F04107460E4615462AB90368C9B261
:105340009B68BDE8F04118470A2A02D1002901DA1A
:1053500004E0D2B2BDE8F041FFF7BBBF2D21FFF75B
:10536000A9FF2A46044671423846FFF7B2FF20449F
:10537000BDE8F081FFF7DCBF2DE9F04757EC106B7B
:1053800082460D4610EE102A3B4610EE100A3946B2
:1053900002F040F808B1484912E027F000494FF008
:1053A000FF32464B3046494602F034F868B94FF0B8
:1053B000FF32424B3046494602F00EF828B94049C8
:1053C0005046FFF763FFBDE8F0874FF060423D4B6A
:1053D0003046394602F014F808B13B49F0E74FF087
:1053E00060423A4B3046394601F0ECFF0028F4D1D8
:1053F000002200233046394601F0E4FF40B12D2160
:105400005046FFF757FF07F1004304461F4600E0F0
:1054100004462F494FF0000800205FFA88F39D42B0
:1054200006D900222B4B01F085FE08F10108F4E7B4
:1054300032463B4601F0A2FB0F46064602F028F832
:105440000A22014680465046FFF743FF04447DB3DD
:10545000404601F0CFFC02460B463046394601F08B
:105460008BFB06460F4650461B49FFF70FFF0444CF
:10547000184B00223046394601F032FD0F460646F1
:1054800001F0DEFF0A22014680465046FFF750FF3A
:105490000444404601F0BEFC02460B463046394605
:1054A00001F06AFB013D15F0FF0506460F46DFD10E
:1054B0002046BDE8F08700BF707B0D00FFFFEF7F47
:1054C0007A7B0D00FFFFEF41747B0D00FFFFEFC102
:1054D0000000E03F00002440787B0D00C9B2FFF7D8
:1054E0004BBF38B5C9B20546FFF746FF044628460C
:1054F000FFF7E3FE204438BD0CB42DE9F04387B03C
:1055000000AF07F13804054654F8049B3C600E4692
:1055100023464A461421381DFFF79CFB132805D863
:10552000391D2846FFF7B2FE044613E000F10803D8
:1055300023F00703E846ADEB030D411C23464A4622
:1055400068463C60FFF786FB69462846FFF79EFEEB
:105550000446C5461EB12846FFF7AFFE0444204668
:105560001C37BD46BDE8F04302B07047014B024A0C
:105570001A607047B4E30320F17B0D00024B1A68F8
:10558000024B1A60704700BF40E20320B8E30320DB
:105590000021FFF7A3BA10B58368044613B10322B4
:1055A00001469847204610BD10B50446FFF7F3FFAB
:1055B000204610BD13B50B46044603C88DE8030012
:1055C00093E8030084E803009DE8030083E80300F8
:1055D00002B010BD0348044A04490023836001F06F
:1055E00043B800BFBCE30320B0E20320A9550D007F
:1055F0007047007D70470000037D1BB18369B3F1E4
:10560000004F02D19FED050A704707EE903A9FEDDB
:10561000047AF8EEE77A87EE870A70470000000008
:105620000000C842037D1BB1036AB3F1004F02D1F1
:105630009FED050A704707EE903A9FED047AF8EE69
:10564000E77A87EE870A7047000000000000C84232
:1056500070B50D4606460A2281682846FFF78AFE85
:105660002C2104462846FFF725FE0A220444F1684F
:105670002846FFF77FFE204470BDA0F10400FFF72D
:10568000E7BF10B52821044600F0F3FF204610BD07
:10569000037D7BB1436A002B0CDB07EE903ADFED14
:1056A000076A9FED070AB8EEE77AC7EE267A27EE7B
:1056B000800A7047BFEE000A704700BF00FF7F47B7
:1056C0000000C842037D7BB1C369002B0CDB07EEF1
:1056D000903ADFED076A9FED070AB8EEE77AC7EE6A
:1056E000267A27EE800A7047BFEE000A704700BF97
:1056F00000FF7F470000C84230B50D4600F110049E
:105700000FCD0FC495E8030084E80300012030BDED
:1057100008B50C4B33B100F029FC03681B699847AE
:10572000002809DC084B63B100F028FD03681B6901
:105730009847002803DC08BDAFF30080F2E7AFF321
:10574000008008BD000000000000000008B5FFF761
:10575000DFFFFFF7BBF8014B186008BD34E70320FB
:1057600007B5002300931A466FF07701FFF7D8F9C9
:1057700003B05DF804FB000007B543880A2B08D08E
:10578000502B09D1094B1B683BB103B05DF804EB0A
:105790001847FFF7E5FF06E0002300931A466FF075
:1057A0007701FFF7BDF903B05DF804FBCCE30320FC
:1057B00010B5FFF783F8044602F060F8074B13B109
:1057C0002046AFF3008000210448FFF723FA0021B0
:1057D0000348BDE81040FFF799B900BF0000000082
:1057E00079570D0070470020704710B5102104460E
:1057F00000F03FFF204610BD08B508B1FFF7F5FFE8
:1058000008BD0022026010B54FF69C728280B1F98B
:10581000044084808A8002680C6804600A6010BDBD
:1058200010B504460068FFF705FA204610BD38B5EC
:10583000C468F4B12378022B03D104F10C00FFF704
:10584000EFFF656835B12846FFF7A5FE1021284611
:1058500000F00FFFA56835B12846FFF79CFE102128
:10586000284600F006FF20461421BDE8384000F02D
:1058700000BF38BD10B588B004466846FFF703FC8A
:10588000694604A8FFF73EFC04A8A047044604A804
:10589000FFF7B2FB6846FFF7AFFB204608B010BD2C
:1058A000F0B5102485B007460E4615460021224665
:1058B000684601F0DAFF002269461046ADF8004064
:1058C000029703960195FFF78DF905B0F0BD13B56A
:1058D000044691E8050000234B600B602060626085
:1058E00001A801930093FEF7FFFB204602B010BD14
:1058F000F7B50C4602AD54F8043B45F8083D0646A2
:105900000F4601A82146FFF79BFC29463046FFF7CA
:10591000DEFF01A8FEF7E8FB2046FEF7E5FB384670
:10592000082100F0A6FE304603B0F0BD38B50023D4
:105930000446036010200D46FEF7AFFB28B101239B
:1059400043608360024B0360C5602060204638BD21
:10595000C47C0D00826810B50AB900F08CFEC368E3
:10596000BDE81040184708B5006800F11001FFF7C6
:10597000F1FF08BD826810B50AB900F07CFEC3686B
:10598000BDE81040184708B5006800F11001FFF7A6
:10599000F1FF08BD38B5002383608B6804460D46CF
:1059A0002BB102229847EB68E360AB68A360204606
:1059B00038BD0000F0B589B004686846FFF721FFE4
:1059C00000238DF808304FF00202D4E84F3F002B3F
:1059D00003D1C4E8412F0029F7D102D08DF8083057
:1059E00063E014F10C0503D069462846FFF709FF70
:1059F000BFF35F8F01236370002004F10803BFF33E
:105A00005F8F53E8006F43E80002002AF9D1BFF32B
:105A10005F8F002E49D0FFF769F820B12946304644
:105A2000FFF798FF3AE0314602A8FFF7B3FFE068BE
:105A3000B4F9105008B101F051FF06901020ADF8F4
:105A40001C50FEF72AFB0546E8B1002787601820A6
:105A5000FEF723FB044688B10146876002A8FFF7E2
:105A6000A9FD049BA268A360059B049206A9E268B5
:105A7000E36004F110000592FFF7C3FE0D4BEB60ED
:105A80000D4B2C60AB6006A8FFF7CAFE02A8FFF71B
:105A900082FD002229460948FFF730F83046FFF71B
:105AA0007AFD1021304600F0E4FD6846FFF7B8FEAD
:105AB00009B0F0BD67590D00DD5B0D00C9610D0037
:105AC0002DE9F04F8BB006460F46904699469DF85B
:105AD00050A0FFF78FF807AD834630BB4FF62E730B
:105AE000059005A92846ADF81830FFF78AFE142066
:105AF000FEF7D3FA044658B1022303700123437022
:105B0000C0F804B0C0F808B029460C30FFF779FEA1
:105B10003046214640F8044BFFF708FF2846FFF7C0
:105B20007FFE05A8FFF77CFE52E000240C23142022
:105B30006C60AC600793FEF7B0FA014618B10470D0
:105B400044704460846004A80391FFF7EFFE224B89
:105B500008930820FEF7A1FA044628B1039B40F8F9
:105B6000043B04A9FFF76CFB00955FFA8AF34A46F1
:105B7000414638460994FFF745F820B9039B5B7806
:105B800003F0FF0283B1039B059304A906A8FFF766
:105B900057FB05A93046FFF79AFE06A8FEF7A4FAC0
:105BA00004A8FEF7A1FA13E04FF69C7305A903A819
:105BB0000592ADF81830FFF7FDFE05A8FFF730FE9F
:105BC00005A80999FFF794FE06A8FEF78DFADAE713
:105BD00030460BB0BDE8F08F4D5D0D00022AF8B5E0
:105BE000044606D0032A17D0012A22D10B6803608D
:105BF0001FE018200E68FEF750FA054650B13146F6
:105C0000FFF7C8FE3069B6F9147008B101F066FEFE
:105C10002861AF8225600CE0046854B104F11000E3
:105C2000FFF7FEFD2046FFF7B6FC1821204600F0E6
:105C300020FD0020F8BD38B5002383608B68044642
:105C40000D462BB102229847EB68E360AB68A36076
:105C5000204638BD022A70B5044606D0032A11D06A
:105C6000012A18D10B68036015E014200E68FEF7B6
:105C700014FA054620B13146FFF7DDFF337C2B7463
:105C8000256008E0046834B12046FFF784FC142145
:105C9000204600F0EEFC002070BD0000F0B50023AF
:105CA00087B00C46BFF35F8F50E8006F40E80032CA
:105CB000002AF9D1BFF35F8F002E3FD01846FEF7C0
:105CC00015FF074620B121463046FFF753FE2EE070
:105CD000314601A8FFF7AFFF23788DF8143010206C
:105CE000FEF7DBF90546D0B187601420FEF7D5F941
:105CF000044678B18760014601A8FFF75BFC039B6F
:105D0000A268A360049B0392E268E3609DF81430EC
:105D1000049223740A4BEB600A4B2C60AB6001A821
:105D2000FFF739FC002229460748FEF7E7FE304618
:105D3000FFF731FC1021304600F09BFC07B0F0BDAE
:105D400087590D00555C0D00C9610D0030B585B057
:105D500004460D4668461146FFF7CAFD7CB124B2E1
:105D600028460DB101F0BAFD029002A96846ADF8CF
:105D70000C40FFF71FFE02A8FFF752FD1DE0009840
:105D80008DF808404FF00102D0E84F3FA34203D105
:105D9000C0E8412F0029F7D102D08DF808300CE07F
:105DA00010F10C014FF0010318BF0373BFF35F8FB5
:105DB000043000F8033CFFF771FF01A8FEF794F9E7
:105DC00005B030BD704710B51821044600F051FCF5
:105DD000204610BDF0B5037D062B8DB00E4600F1B8
:105DE00004074FF0000402D000F1080518E00CADE4
:105DF000394605F8304D2F232A460A20FEF7A6FD26
:105E0000284601F086FD33680246DB6829463046A5
:105E100098470FE024B12E213046FFF74BFA044497
:105E200015F8011D0A223046FFF780FABD420444EE
:105E3000F0D120460DB0F0BD10B5054B044611223F
:105E400040F8043B002101F010FD204610BD00BFCA
:105E5000E07C0D000346074A10B543F8042B01F11E
:105E6000100251F8044B43F8044B9142F9D10A78DF
:105E70001A7010BDE07C0D0010B59DF8084044EA92
:105E8000032343EA024242EA0161042341600375AD
:105E900010BD37B50D788B784A78C97800912946BE
:105EA000FFF7EAFF03B030BD41747047704708B593
:105EB0000021007CFEF7F2FD30EA200028BF4FF001
:105EC000FF3008BD08B50121007CFEF7E7FD30EA90
:105ED000200028BF4FF0FF3008BD08B5007CFEF75A
:105EE000D5FD20EAE07008BD08B5007CFEF7C6FDD0
:105EF00020EAE07008BD007CFEF7E0BD10B514217B
:105F0000044600F0B6FB204610BD38B50446007CC0
:105F10000D46FEF7BBFD002801DC607C28B1294658
:105F2000207CFEF7C3FD20EAE07038BD10B50446C2
:105F3000002363604FF47A73A360054B2360012351
:105F40000846217463741146FEF788FD204610BD93
:105F5000F47C0D000022007CFEF788BD10B51422F1
:105F60000446002101F081FC204610BD30B50E4DE5
:105F700087B001A8FFF7F2FF296811F0010410D1E2
:105F80002846FEF790F860B101AA21460748FFF7BE
:105F9000CDFF2846FEF78CF8054A0649034800F075
:105FA00063FB024807B030BDD0E30320D4E30320F5
:105FB000B0E20320AD5E0D00002211464068FEF7FE
:105FC000D1BD002211464068FEF7ECBD002211460B
:105FD0004068FEF7F7BD00224068FEF7EBBD0022E7
:105FE00081F001014068FEF7D5BD00231A4619462D
:105FF0004068FEF7C7BD00231A4619464068FEF701
:10600000B9BD002211464068FEF79CBD0022022166
:106010004068FEF79FBD00231A464068FEF78ABD20
:10602000F0B51B4B036000250F462833182689B0B6
:1060300043608560C560324629460446103001F051
:1060400014FC2A4629467868FEF78CFD08B9A06042
:106050001BE02946324602A80095019501F005FC97
:1060600002A96846ADF80860FEF7F0FC10B1012304
:10607000A3600AE0009B019AA360E2600BB90223CF
:10608000A36002A92046FFF737FB204609B0F0BD08
:10609000907C0D0038B5084C28252A460021204662
:1060A00001F0E3FB4FF0FF336360044B25800422D3
:1060B0005A60034A1A6038BDF0E30320E8E3032086
:1060C000247D0D0070474174704708B5007CFEF7D1
:1060D0007DFC20EAE07008BD08B5007CFEF74EFCB0
:1060E00020EAE07008BD08B5007CFEF757FC30EAF6
:1060F000200028BF4FF0FF3008BD08B5007CFEF738
:1061000045FC30EA200028BF4FF0FF3008BD007C7E
:10611000FEF74CBC10B51421044600F0AAFA204644
:1061200010BD70B5457C04460E4625B9007CFEF7CF
:106130004DFC002805DD3146207CBDE87040FEF7AF
:1061400015BC284670BD000010B50446084611462F
:10615000002262604FF47A72A260054A2260012236
:10616000207462741A46FEF7F9FB204610BD00BF8A
:10617000587D0D00007CFEF721BC000038B50C4DA9
:10618000296811F0010411D12846FDF78CFF68B190
:10619000084A094B09482146FFF7D6FF2846FDF774
:1061A00087FF074A0749054800F05EFA034838BDF3
:1061B000B0E40320B4E403202CE4032018E403201B
:1061C000B0E20320C5600D0010B5836804460BB92A
:1061D00000F051FAC3689847A3681BB10322214617
:1061E0002046984720461021BDE8104000F041BAF3
:1061F0007047F8B5064615460C468F18BC4206D0C7
:10620000336814F8011B9B6830469847F6E7284628
:10621000F8BD0022007CFEF7E1BB0021007CFEF708
:10622000E5BB0021007CFEF7E9BB0021007CFEF706
:10623000EDBB0021007CFEF7F1BB10B51421044634
:1062400000F017FA204610BD10B504464FF47A73DB
:106250000846A3600021044B207461602360FEF7B0
:10626000EDFB204610BD00BF887D0D000021007CA5
:10627000FEF7DCBB002211464068FEF793BC00220B
:1062800011464068FEF79EBC00224068FEF792BCB3
:10629000002281F001014068FEF77CBC00231A4611
:1062A00001214068FEF76EBC00231A46194640687B
:1062B000FEF760BC002211464068FEF753BC002286
:1062C00011464068FEF73EBC002202214068FEF7FE
:1062D00041BC00231A464068FEF72CBC38B5054681
:1062E00088B104684CB1A3681BB103222146204643
:1062F00098471021204600F0BCF928461421BDE83B
:10630000384000F0B6B938BD10B103685B68184773
:10631000704710B503680446BBB15868FEF7DEFA53
:1063200078B923685A7C12B95868FEF7DFFA2368F7
:106330005868FEF7E3FA20680023236028B1FFF7CE
:10634000CDFF206808B1FFF7C9FF204610BD00004F
:1063500038B50C4B03600446D0F8CC0108B1FDF70A
:10636000A0FED4F8C45135B12846FFF7D2FF04216E
:10637000284600F07EF9A06808B1FFF7C5FF204667
:1063800038BD00BFB07D0D0038B50E4C0E4B2360FC
:106390000025022304F5E4706360A560C4F8C451CD
:1063A000C4F8C851FEF7CAFA084BC4F8CC5184F8B7
:1063B000D05123602046064A0649BDE8384000F027
:1063C00053B900BF38E50320E47D0D00B07D0D001A
:1063D000B0E2032051630D0000231A464068FEF727
:1063E000A9BB002202214068FEF7B4BB002211467F
:1063F0004068FEF7A7BB002211464068FEF7B2BB1B
:1064000000231A4619464068FEF7B4BB00231A461B
:1064100019464068FEF7B6BB002281F001014068D2
:10642000FEF7B8BB00224068FEF7C4BB002211464D
:106430004068FEF7C7BB002211464068FEF7B2BBBA
:106440002DE9F043002495B016460D460746FFF7A8
:10645000F3FC214620220CA8009401F006FA402308
:106460000C9321466B460CAA3046FEF7C7F904464A
:10647000002844D1024601216868FEF773FB02211F
:10648000804622466868FEF76DFB009E81462146E5
:10649000002E34D0002932D17368022B02D00A2B8F
:1064A00009D02AE0B8F1000F27D0716938460431CD
:1064B000FFF7EFFC20E0B9F1000F1ED07469112244
:1064C00001A801F0D2F906238DF8143001AD04F1D2
:1064D00008031834186859682A4603C20833A342CF
:1064E0001546F7D101A906A807ADFFF7B3FC0FCDFC
:1064F0003C1D0FC42B6823700121F669C8E7009882
:10650000FEF774F9384615B0BDE8F083024B034A34
:106510001A6000225A6070470CE70320E47D0D00EA
:1065200010B504460F48FEF7A3FC28B1A4F10B03F5
:10653000022B01D8002010BD00F076F8FFF796FE80
:1065400008B1012CF6D9FFF719FEFFF713FE18B1B9
:10655000A4F10903012BEDD9232C8CBF00200120CD
:1065600010BD00BF14E70320232838B504460D46AC
:106570000AD8FF2908D0FFF7D3FF28B129462046C3
:10658000BDE83840FEF74AB938BD38B504460D4677
:10659000FEF74CF9FF2810D0062804D84D2323FA23
:1065A00000F0C30709D42046FFF7BAFF28B12946F7
:1065B0002046BDE83840FEF741B938BD10B5044665
:1065C000FEF734F90438C0B2012808D92046FFF795
:1065D000A7FF20B12046BDE81040FEF737B90020E4
:1065E00010BD000070B50C4C0C4E0D4D0021204626
:1065F000FEF796FB20460B4C3246294600F034F855
:1066000001212046FEF78CFB324629462046BDE894
:10661000704000F029B800BF14E70320B0E2032067
:10662000114D0D0024E7032038B50B4D296811F0FA
:1066300001040FD12846FDF736FD58B12146074821
:10664000FFF702FE2846FDF733FD054A05490348DA
:1066500000F00AF8014838BD38E703203CE7032082
:10666000B0E20320F1610D000B460146184601F02F
:10667000E3B8FDF714BD08B5FEF7F4FA184B1A6835
:10668000D1075CBF01221A60164B1A68D2075CBFA3
:1066900001221A60144B1A68D0075CBF01221A60ED
:1066A000124B1A68D1075CBF01221A60104B1A689E
:1066B000D2075CBF01221A600E4B1A68D0075CBF7C
:1066C00001221A600C4B1A68D1075CBF01221A60C4
:1066D0000A4B1A68D2075CBF01221A60704700BFDC
:1066E0006CE7032068E7032064E7032060E70320EA
:1066F0005CE7032058E7032054E7032050E703201A
:10670000244B1A68D0075CBF01221A60224B1A681A
:10671000D1075CBF01221A60204B1A68D2075CBF08
:1067200001221A601E4B1A68D0075CBF01221A6052
:106730001C4B1A68D1075CBF01221A601A4B1A68F9
:10674000D2075CBF01221A60184B1A68D0075CBFE1
:1067500001221A60164B1A68D1075CBF01221A6029
:10676000144B1A68D2075CBF01221A60124B1A68D8
:10677000D0075CBF01221A60104B1A68D1075CBFBA
:1067800001221A600E4B1A68D2075CBF01221A6000
:10679000704700BF9CE7032098E7032094E703209D
:1067A00090E703208CE7032088E7032084E7032099
:1067B00080E703207CE7032078E7032074E70320C9
:1067C00070E70320244B1A68D0075CBF01221A60CF
:1067D000224B1A68D1075CBF01221A60204B1A684D
:1067E000D2075CBF01221A601E4B1A68D0075CBF3B
:1067F00001221A601C4B1A68D1075CBF01221A6083
:106800001A4B1A68D2075CBF01221A60184B1A682B
:10681000D0075CBF01221A60164B1A68D1075CBF13
:1068200001221A60144B1A68D2075CBF01221A6059
:10683000124B1A68D0075CBF01221A60104B1A680D
:10684000D1075CBF01221A600E4B1A68D2075CBFE9
:1068500001221A60704700BFCCE70320C8E703207D
:10686000C4E70320C0E70320BCE70320B8E7032008
:10687000B4E70320B0E70320ACE70320A8E7032038
:10688000A4E70320A0E70320184B1A68D1075CBFD8
:1068900001221A60164B1A68D2075CBF01221A60E7
:1068A000144B1A68D0075CBF01221A60124B1A6899
:1068B000D1075CBF01221A60104B1A68D2075CBF77
:1068C00001221A600E4B1A68D0075CBF01221A60C1
:1068D0000C4B1A68D1075CBF01221A600A4B1A6878
:1068E000D2075CBF01221A60704700BFECE70320AB
:1068F000E8E70320E4E70320E0E70320DCE70320E8
:10690000D8E70320D4E70320D0E703202DE9F043A4
:106910002DED028B8BB055EC104B00F057F8294B46
:10692000B0EE408AF0EE608A93F90060731C12D0DA
:1069300022462B462046294600F06CFD074650B9FA
:106940004FF000084FF000092046294642464B46CA
:1069500000F038FD40B9B0EE480AF0EE680A0BB01E
:10696000BDEC028BBDE8F083174B08970122CDE9FF
:106970000445CDE902458DE80C00B6B142464B46D0
:106980004046494600F0D6FB022ECDE906010ED165
:10699000FEF778F921230360089B73B99DED060B80
:1069A0000BB0BDEC028BBDE8F083CDE906896846EB
:1069B00000F0DCF80028EFD1EAE7FEF763F9089B66
:1069C0000360EBE744E20320107E0D002DE9F04167
:1069D000654955EC104B0E462940B14200F09780B6
:1069E000002D2B4610EE102A74DD2F157FD0A7F254
:1069F000FF37C3F31303F90743F4801365D403EBA4
:106A0000D27100260B447F105200B64616204FF478
:106A100000110EEB01049C424FEAD2754FEA42028C
:106A200003DC1B1B04EB010E0E44013805EB430392
:106A30004FEA5101EDD1844620244FF0004109E096
:106A400020D003EBD275013C4FEA51012B444FEAB1
:106A5000420220D09E4501EB0C05F1DA002D05EB3A
:106A6000010C09DBF0469542CEEB030300D9013B54
:106A7000521B0844C646E4E7BCF1000FF2DB0EF1FE
:106A80000108F0E795421ED8002D05EB010C50DB04
:106A900098460023ECE7134304D0421C4DD000F08D
:106AA0000103184440087110F30701F17F5101F50B
:106AB000001148BF40F0004001EB0753024643EC91
:106AC000102BBDE8F0817346BBE75B0003EBD2738C
:106AD000520094E725F00041214328D0ADBB2F465A
:106AE000D30A153F5205002BFAD0DD0228D400212D
:106AF00000E001465B00DC0201F10100F9D5C0F1C4
:106B0000200422FA04F423437F1A82406FE710EE38
:106B1000102A2B4610EE100A294600F0E1F9224611
:106B20002B4600F02BF841EC100BBDE8F081BDE8DE
:106B3000F081BCF1000FA2DAAAE701362046B2E7E5
:106B400020244FF0FF310020DBE710EE102A2B4607
:106B50002046294600F010F802460B4600F0EAFAFB
:106B600041EC100BBDE8F0810000F07F0020704781
:106B700081F0004102E000BF83F0004330B54FEAEE
:106B800041044FEA430594EA050F08BF90EA020F5B
:106B90001FBF54EA000C55EA020C7FEA645C7FEAEE
:106BA000655C00F0E2804FEA5454D4EB5555B8BF11
:106BB0006D420CDD2C4480EA020281EA030382EA82
:106BC000000083EA010180EA020281EA0303362D14
:106BD00088BF30BD11F0004F4FEA01314FF4801CE7
:106BE0004CEA113102D0404261EB410113F0004FF9
:106BF0004FEA03334CEA133302D0524263EB4303B0
:106C000094EA050F00F0A780A4F10104D5F1200E4D
:106C10000DDB02FA0EFC22FA05F2801841F10001A8
:106C200003FA0EF2801843FA05F359410EE0A5F17C
:106C300020050EF1200E012A03FA0EFC28BF4CF0AD
:106C4000020C43FA05F3C01851EBE37101F0004563
:106C500007D54FF0000EDCF1000C7EEB00006EEB70
:106C60000101B1F5801F1BD3B1F5001F0CD34908FA
:106C70005FEA30004FEA3C0C04F101044FEA445251
:106C800012F5800F80F09A80BCF1004F08BF5FEAD8
:106C9000500C50F1000041EB045141EA050130BDB8
:106CA0005FEA4C0C404141EB010111F4801FA4F15B
:106CB0000104E9D191F0000F04BF01460020B1FAB0
:106CC00081F308BF2033A3F10B03B3F120020CDAE8
:106CD0000C3208DD02F1140CC2F10C0201FA0CF0C6
:106CE00021FA02F10CE002F11402D8BFC2F1200C2B
:106CF00001FA02F120FA0CFCDCBF41EA0C019040E1
:106D0000E41AA2BF01EB0451294330BD6FEA040429
:106D10001F3C1CDA0C340EDC04F11404C4F1200214
:106D200020FA04F001FA02F340EA030021FA04F326
:106D300045EA030130BDC4F10C04C4F1200220FA7D
:106D400002F001FA04F340EA0300294630BD21FABB
:106D500004F0294630BD94F0000F83F4801306BF81
:106D600081F480110134013D4EE77FEA645C18BF75
:106D70007FEA655C29D094EA050F08BF90EA020F0C
:106D800005D054EA000C04BF1946104630BD91EA04
:106D9000030F1EBF0021002030BD5FEA545C05D107
:106DA0004000494128BF41F0004130BD14F5800446
:106DB0003CBF01F5801130BD01F0004545F0FE41BA
:106DC00041F470014FF0000030BD7FEA645C1ABFEF
:106DD000194610467FEA655C1CBF0B46024650EA26
:106DE000013406BF52EA033591EA030F41F4002152
:106DF00030BD00BF90F0000F04BF0021704730B5D8
:106E00004FF4806404F132044FF000054FF00001AC
:106E100050E700BF90F0000F04BF0021704730B56D
:106E20004FF4806404F1320410F0004548BF404242
:106E30004FF000013EE700BF42004FEAE2014FEA97
:106E400031014FEA02701FBF12F07F4393F07F4F72
:106E500081F06051704792F0000F14BF93F07F4FA4
:106E6000704730B54FF4607401F0004521F00041E7
:106E700020E700BF50EA010208BF704730B54FF06D
:106E800000050AE050EA010208BF704730B511F072
:106E9000004502D5404261EB41014FF4806404F1AA
:106EA00032045FEA915C3FF4DCAE4FF003025FEA2C
:106EB000DC0C18BF03325FEADC0C18BF033202EBB4
:106EC000DC02C2F1200300FA03FC20FA02F001FA0E
:106ED00003FE40EA0E0021FA02F11444C1E600BFAD
:106EE00070B54FF0FF0C4CF4E06C1CEA11541DBF60
:106EF0001CEA135594EA0C0F95EA0C0F00F0DEF82B
:106F00002C4481EA030621EA4C5123EA4C5350EA0F
:106F1000013518BF52EA033541F4801143F4801360
:106F200038D0A0FB02CE4FF00005E1FB02E506F0F1
:106F30000042E0FB03E54FF00006E1FB03569CF046
:106F4000000F18BF4EF0010EA4F1FF04B6F5007F4C
:106F500064F5407404D25FEA4E0E6D4146EB0606BE
:106F600042EAC62141EA55514FEAC52040EA5E5047
:106F70004FEACE2EB4F1FD0C88BFBCF5E06F1ED8F1
:106F8000BEF1004F08BF5FEA500E50F1000041EB28
:106F9000045170BD06F0004646EA010140EA0200D5
:106FA00081EA0301B4EB5C04C2BFD4EB0C0541EAF7
:106FB000045170BD41F480114FF0000E013C00F30C
:106FC000AB8014F1360FDEBF002001F0004170BD30
:106FD000C4F10004203C35DA0C341BDC04F1140449
:106FE000C4F1200500FA05F320FA04F001FA05F2D5
:106FF00040EA020001F0004221F0004110EBD370A2
:1070000021FA04F642EB06015EEA430E08BF20EACD
:10701000D37070BDC4F10C04C4F1200500FA04F370
:1070200020FA05F001FA04F240EA020001F0004102
:1070300010EBD37041F100015EEA430E08BF20EA75
:10704000D37070BDC4F1200500FA05F24EEA020EBD
:1070500020FA04F301FA05F243EA020321FA04F0EC
:1070600001F0004121FA04F220EA020000EBD370A3
:107070005EEA430E08BF20EAD37070BD94F0000FA3
:107080000FD101F00046400041EB010111F4801FD7
:1070900008BF013CF7D041EA060195F0000F18BF88
:1070A000704703F00046520043EB030313F4801FC4
:1070B00008BF013DF7D043EA0603704794EA0C0F7E
:1070C0000CEA135518BF95EA0C0F0CD050EA410694
:1070D00018BF52EA4306D1D181EA030101F0004111
:1070E0004FF0000070BD50EA410606BF1046194639
:1070F00052EA430619D094EA0C0F02D150EA013645
:1071000013D195EA0C0F05D152EA03361CBF104685
:1071100019460AD181EA030101F0004141F0FE4124
:1071200041F470014FF0000070BD41F0FE4141F4A8
:10713000780170BD70B54FF0FF0C4CF4E06C1CEAA8
:1071400011541DBF1CEA135594EA0C0F95EA0C0F5D
:1071500000F0A7F8A4EB050481EA030E52EA033518
:107160004FEA013100F088804FEA03334FF0805539
:1071700045EA131343EA12634FEA022245EA111566
:1071800045EA10654FEA00260EF000419D4208BF17
:10719000964244F1FD0404F5407402D25B084FEAC4
:1071A0003202B61A65EB03055B084FEA32024FF470
:1071B00080104FF4002CB6EB020E75EB030E22BFCD
:1071C000B61A754640EA0C005B084FEA3202B6EB8D
:1071D000020E75EB030E22BFB61A754640EA5C003C
:1071E0005B084FEA3202B6EB020E75EB030E22BFCC
:1071F000B61A754640EA9C005B084FEA3202B6EBCD
:10720000020E75EB030E22BFB61A754640EADC008B
:1072100055EA060E18D04FEA051545EA16754FEAED
:1072200006164FEAC30343EA52734FEAC2025FEA0B
:107230001C1CC0D111F4801F0BD141EA00014FF09A
:1072400000004FF0004CB6E711F4801F04BF01436B
:107250000020B4F1FD0C88BFBCF5E06F3FF6AFAE87
:10726000B5EB030C04BFB6EB020C5FEA500C50F117
:10727000000041EB045170BD0EF0004E4EEA11319A
:1072800014EB5C04C2BFD4EB0C0541EA045170BDA1
:1072900041F480114FF0000E013C90E645EA060EE5
:1072A0008DE60CEA135594EA0C0F08BF95EA0C0F13
:1072B0003FF43BAF94EA0C0F0AD150EA01347FF45B
:1072C00034AF95EA0C0F7FF425AF104619462CE732
:1072D00095EA0C0F06D152EA03353FF4FDAE104695
:1072E000194622E750EA410618BF52EA43067FF4E6
:1072F000C5AE50EA41047FF40DAF52EA43057FF476
:10730000EBAE12E74FF0FF3C06E000BF4FF0010C80
:1073100002E000BF4FF0010C4DF804CD4FEA410CE4
:107320007FEA6C5C4FEA430C18BF7FEA6C5C1BD0B1
:1073300001B050EA410C0CBF52EA430C91EA030F32
:1073400002BF90EA020F0020704710F1000F91EA8F
:10735000030F58BF994208BF90422CBFD8176FEA5D
:10736000E37040F0010070474FEA410C7FEA6C5C2B
:1073700002D150EA013C07D14FEA430C7FEA6C5C32
:10738000D6D152EA033CD3D05DF8040B704700BF5E
:107390008446104662468C461946634600E000BFAC
:1073A00001B5FFF7B7FF002848BF10F1000F01BD7E
:1073B0004DF808EDFFF7F4FF0CBF012000205DF849
:1073C00008FB00BF4DF808EDFFF7EAFF34BF0120CE
:1073D00000205DF808FB00BF4DF808EDFFF7E0FF67
:1073E00094BF012000205DF808FB00BF4DF808EDB8
:1073F000FFF7CEFF94BF012000205DF808FB00BF1F
:107400004DF808EDFFF7C4FF34BF012000205DF800
:1074100008FB00BF4FEA410C7FEA6C5C02D150EAE6
:10742000013C0AD14FEA430C7FEA6C5C02D152EA7C
:10743000033C02D14FF0000070474FF0010070474D
:107440004FEA410212F5001215D211D56FF478738C
:10745000B3EB625212D94FEAC12343F0004343EA2F
:10746000505311F0004F23FA02F018BF404270470A
:107470004FF00000704750EA013005D111F0004094
:1074800008BF6FF0004070474FF00000704700BF2A
:107490004A0011D212F5001211D20DD56FF4787393
:1074A000B3EB62520ED44FEAC12343F0004343EAE8
:1074B000505323FA02F070474FF00000704750EA33
:1074C000013002D14FF0FF3070474FF0000070479D
:1074D00053B94AB9002908BF00281CBF4FF0FF313B
:1074E0004FF0FF3000F0A2B9ADF1080C6DE904CE09
:1074F00000F02AF8DDF804E0DDE9022304B070476B
:10750000D0B500220E4B06460F46FFF7E9FCFFF709
:10751000BFFF0446FFF76EFC00220A4BFFF7E0FCBA
:1075200002460B4630463946FFF726FBFFF7B0FF11
:107530002346002242EA000210461946D0BD00BF91
:107540000000F03D0000F0412DE9F0478C460E466A
:107550000446089D002B50D18A4217466CD9B2FAD6
:1075600082FEBEF1000F0BD0CEF1200420FA04F40D
:1075700001FA0EF644EA060C02FA0EF700FA0EF4CF
:107580004FEA1749220CBCFBF9F01FFA87F809FBF8
:1075900010C642EA064600FB08F3B34209D9F619C1
:1075A00000F1FF3280F02281B34240F21F810238A5
:1075B0003E44F61AA2B2B6FBF9F309FB136642EA9F
:1075C000064403FB08F8A04509D9E41903F1FF328A
:1075D00080F00A81A04540F20781023B3C44C8EBA1
:1075E000040443EA00400021002D62D024FA0EF486
:1075F00000232C606B60BDE8F0878B4207D9002D1B
:1076000055D0002185E841000846BDE8F087B3FA6F
:1076100083F1002940F09080B34202D3824200F20D
:10762000F880841A66EB03060120B446002D40D092
:1076300085E81010BDE8F08712B90127B7FBF2F713
:10764000B7FA87FEBEF1000F35D1F31B4FEA17489A
:107650001FFA87FC0121B3FBF8F0220C08FB10365F
:1076600042EA06460CFB00F3B34207D9F61900F1D3
:10767000FF3202D2B34200F2CE801046F61AA2B216
:10768000B6FBF8F308FB136642EA06440CFB03FC66
:10769000A44507D9E41903F1FF3202D2A44500F250
:1076A000B5801346CCEB040443EA00409CE729462E
:1076B0002846BDE8F087CEF1200106FA0EF307FA5E
:1076C0000EF720FA01F94FEA1748CE4049EA0309BC
:1076D000B6FBF8FA4FEA194408FB1A661FFA87FC52
:1076E00044EA06430AFB0CF29A4200FA0EF40AD965
:1076F000DB190AF1FF3180F087809A4240F28480E2
:10770000AAF1020A3B449B1A1FFA89F9B3FBF8F16C
:1077100008FB113349EA034301FB0CF69E4207D9EB
:10772000DB1901F1FF326BD29E4269D902393B4429
:107730009B1B41EA0A418EE7C1F1200E22FA0EF4AA
:107740008B40234320FA0EF706FA01F44FEA134C5C
:1077500026FA0EF63C43B6FBFCF9270C0CFB196627
:107760001FFA83F847EA064609FB08F7B74202FA10
:1077700001F200FA01FA08D9F61809F1FF3041D2F6
:10778000B7423FD9A9F102091E44F61BA0B2B6FBCD
:10779000FCF40CFB146640EA064704FB08F8B84505
:1077A00007D9FF1804F1FF3028D2B84526D9023C8A
:1077B0001F4444EA0940C8EB0707A0FB02894F4574
:1077C00044464E4614D329D065B3BAEB040367EBA5
:1077D000060707FA0EFECB40CF404EEA030385E8CA
:1077E00088000021BDE8F0871346F8E61046E0E681
:1077F000B8EB020469EB03060138E5E70446D8E775
:10780000114695E78146C0E78A467CE7023B3C4447
:1078100048E708460AE702383E442FE7C245E7D367
:107820003E46D1E72946BDE8F08700BF704700BF5C
:107830000A22002100F0FCB810B5054C13462CB10B
:107840000A4601460220AFF3008010BD204610BD5D
:107850000000000010B5431E0A44914204D011F804
:10786000014B03F8014FF8E710BD02440346934271
:1078700002D003F8011BFAE77047000038B5124B3D
:107880001C68A36B0546D3B91820FDF7CBF943F26A
:107890000E33A06303804AF6CD33438041F2342394
:1078A00083804EF26D63C3804DF6EC630381052344
:1078B00043810B23838101220023C0E90423A36BAE
:1078C00000221D615A6138BDACE20320034611F865
:1078D000012B03F8012B002AF9D17047024B014616
:1078E000186800F003B800BFACE2032070B506468C
:1078F00008460C4600F00DF8451C29463046FDF7B9
:10790000B9F9064618B12A462146FFF7A3FF3046CB
:1079100070BD034613F8012B002AFBD1181A013859
:10792000704700002DE9F04780464048D0F80090AD
:107930000F463D4615F8014B09EB0400407800F076
:10794000080000F0FF0608B12F46F2E72D2C03D106
:10795000BD1C7C78012603E02B2C04BF7C78BD1C69
:1079600013B1102B0AD15BE0302C57D1287800F0EE
:10797000DF0058284DD16C7810230235002E14BF3B
:107980004FF0004C6FF0004C0027BCFBF3FA384678
:1079900003FB1ACC09EB040E9EF801E01EF0040F65
:1079A00001D0303C0BE01EF0030E1BD0BEF1010FE6
:1079B0000CBF4FF0370E4FF0570ECEEB0404A3422E
:1079C00010DDB7F1FF3F0AD0504506D801D164451C
:1079D00003DC03FB0040012701E04FF0FF3715F8FF
:1079E000014BD7E77B1C0CD1002E4FF0220314BFB4
:1079F0004FF000406FF00040C8F800302AB9BDE8F1
:107A0000F08706B1404272B107B1691E1160BDE84E
:107A1000F0873024002BB1D10823AFE70A23ADE76C
:107A2000302CA3D0AAE7BDE8F08700BF48E20320CE
:107A300013460A46014602480068FFF773BF00BFBD
:107A4000ACE2032021400D005D400D0089400D0097
:107A50008D400D0000000000496E20416C61726D88
:107A600000416C61726D205265736574002056612F
:107A70006C75653A200049726D7320303A200044DD
:107A8000727965725F416C61726D5F0052657365FA
:107A9000745F4472796572005369676E616C5F53FD
:107AA0007472656E677468005369676E616C5F51CC
:107AB00075616C69747900506F77657200416D7003
:107AC00073003000040506080300020001000000F6
:107AD0000000000000000000D5450D0064656661EF
:107AE000756C7420004D5342004C5342003C53507F
:107AF0004953657474696E67732064656661756C5B
:107B0000743E003C53504953657474696E6773202A
:107B10002573256C75202573204D4F444525643E03
:107B2000000000000000000000000000F34C0D0009
:107B3000E94C0D00DF4C0D00D54C0D00C94C0D007B
:107B4000BD4C0D00B14C0D00A94C0D009F4C0D001B
:107B5000954C0D0041640D00000000000000000085
:107B6000114D0D00134D0D0000081018202830385D
:107B70006E616E006F7666002E00696E660062614F
:107B800075640053657269616C0053657269616C5C
:107B900031007479706500706172616D00636D64AD
:107BA00000696400686E64007374726D0066696CCD
:107BB00074006C766C0061646448616E646C65721C
:107BC0000072656D6F766548616E646C6572006504
:107BD0006E756D48616E646C657273004A534F4EEA
:107BE00053747265616D4C6F6748616E646C657249
:107BF0000061707000253031307520005D20002557
:107C000064002C200028293A2000205B00636F6468
:107C100065203D200025690064657461696C7320EE
:107C20003D20000D0A006C6E00666E00636F646597
:107C30000064657461696C006E6F6E6500747261DA
:107C4000636500696E666F007761726E00657272BF
:107C50006F720070616E696300616C6C005A002580
:107C60002B3033643A253032750025592D256D2D82
:107C700025645425483A254D3A2553257A006173E9
:107C80006374696D650000000000000000000000E2
:107C9000F1550D0083560D00F3550D00C5560D002E
:107CA000F9550D0091560D0025560D0051560D0049
:107CB000FCFFFFFF000000007B560D0000000000ED
:107CC00000000000E5570D00EB570D002F580D0088
:107CD000F9570D00E7570D000000000000000000FC
:107CE000D55D0D00C55D0D00C75D0D0000000000F5
:107CF00000000000AD5E0D00FD5E0D000B5F0D008D
:107D000061520D00E95E0D00AF5E0D00C55E0D0015
:107D1000F75E0D00DB5E0D00A95E0D0000000000A7
:107D20000000000017600D000D600D0003600D00E5
:107D3000B95F0D00F75F0D00EB5F0D00DF5F0D0019
:107D4000D75F0D00CD5F0D00C35F0D0041640D00D6
:107D50000000000000000000C5600D0015610D006E
:107D600023610D0061520D00D9600D00FB600D0014
:107D7000E7600D000F610D00C7600D00CB600D00C6
:107D80000000000000000000F1610D003B620D00EA
:107D900013620D00F3610D001B620D0023620D00E4
:107DA0002B620D0033620D00000000000000000097
:107DB000D3620D00C9620D00BF620D00B5620D00F7
:107DC000A9620D009D620D0091620D0089620D0097
:107DD0007F620D0075620D0041640D00000000001F
:107DE00000000000D9630D00E3630D00ED630D009A
:107DF000F7630D0001640D000D640D0019640D00A2
:107E000025640D002D640D0037640D0041640D00E4
:107E100073717274000000000020202020202020B8
:107E2000202028282828282020202020202020202A
:107E3000202020202020202020881010101010103A
:107E40001010101010101010100404040404040486
:107E50000404041010101010101041414141414120
:107E60000101010101010101010101010101010102
:107E70000101010110101010101042424242424212
:107E800002020202020202020202020202020202D2
:107E9000020202021010101020000000000000007A
:107EA00000000000000000000000000000000000D2
:107EB00000000000000000000000000000000000C2
:107EC00000000000000000000000000000000000B2
:107ED00000000000000000000000000000000000A2
:107EE0000000000000000000000000000000000092
:107EF0000000000000000000000000000000000082
:107F00000000000000000000000000000000000071
:107F10000000000000000000000000000000000061
:107F20000000000000000000000000000000000051
:107F30000000000000000000000000000000000041
:107F40000000000000000000000000000000000031
:107F50000000000000000000000000000000000021
:107F60000000000000000000000000000000000011
:107F700000000000000000000000000043000000BE
:107F8000F9440D00B5460D00B9460D00BD460D0083
:107F9000E9470D00FD4C0D00794E0D0051520D00CA
:107FA0006D550D007D550D00D5550D0095600D00EA
:107FB00089630D000D650D00E5650D007D660D0002
:107FC00001670D00C5670D0089680D000000000005
:087FD00078F5FF7F01000000BD
:107FD8007E7C0D0001000000187E0D0000000000EE
:107FE8001C7F0D003C7F0D005C7F0D000000000031
:107FF8000000000000000000000000007C7F0D0071
:108008000000000000000000000000000000000068
:108018000000000000000000000000000000000058
:108028000000000000000000000000000000000048
:108038000000000000000000000000004CE20320E7
:10804800FFFFFFFF00000102030405060708090AF5
:108058000B0C0D0E0F101112131415161718191AF0
:088068001B1C1D1E1F20280037
:0480700078563412F8
:04000003D0004020C9
:00000001FF
